{
  "_format": "hh-sol-artifact-1",
  "contractName": "UnicornNodeClub",
  "sourceName": "contracts/UnicornNodeClub.sol",
  "abi": [
    {
      "inputs": [
        {
          "internalType": "string",
          "name": "baseURI",
          "type": "string"
        }
      ],
      "stateMutability": "nonpayable",
      "type": "constructor"
    },
    {
      "anonymous": false,
      "inputs": [
        {
          "indexed": true,
          "internalType": "address",
          "name": "owner",
          "type": "address"
        },
        {
          "indexed": true,
          "internalType": "address",
          "name": "approved",
          "type": "address"
        },
        {
          "indexed": true,
          "internalType": "uint256",
          "name": "tokenId",
          "type": "uint256"
        }
      ],
      "name": "Approval",
      "type": "event"
    },
    {
      "anonymous": false,
      "inputs": [
        {
          "indexed": true,
          "internalType": "address",
          "name": "owner",
          "type": "address"
        },
        {
          "indexed": true,
          "internalType": "address",
          "name": "operator",
          "type": "address"
        },
        {
          "indexed": false,
          "internalType": "bool",
          "name": "approved",
          "type": "bool"
        }
      ],
      "name": "ApprovalForAll",
      "type": "event"
    },
    {
      "anonymous": false,
      "inputs": [
        {
          "indexed": true,
          "internalType": "address",
          "name": "previousOwner",
          "type": "address"
        },
        {
          "indexed": true,
          "internalType": "address",
          "name": "newOwner",
          "type": "address"
        }
      ],
      "name": "OwnershipTransferred",
      "type": "event"
    },
    {
      "anonymous": false,
      "inputs": [
        {
          "indexed": true,
          "internalType": "address",
          "name": "from",
          "type": "address"
        },
        {
          "indexed": true,
          "internalType": "address",
          "name": "to",
          "type": "address"
        },
        {
          "indexed": true,
          "internalType": "uint256",
          "name": "tokenId",
          "type": "uint256"
        }
      ],
      "name": "Transfer",
      "type": "event"
    },
    {
      "inputs": [
        {
          "internalType": "address",
          "name": "to",
          "type": "address"
        },
        {
          "internalType": "uint256",
          "name": "tokenId",
          "type": "uint256"
        }
      ],
      "name": "approve",
      "outputs": [],
      "stateMutability": "nonpayable",
      "type": "function"
    },
    {
      "inputs": [
        {
          "internalType": "address",
          "name": "owner",
          "type": "address"
        }
      ],
      "name": "balanceOf",
      "outputs": [
        {
          "internalType": "uint256",
          "name": "",
          "type": "uint256"
        }
      ],
      "stateMutability": "view",
      "type": "function"
    },
    {
      "inputs": [],
      "name": "baseTokenURI",
      "outputs": [
        {
          "internalType": "string",
          "name": "",
          "type": "string"
        }
      ],
      "stateMutability": "view",
      "type": "function"
    },
    {
      "inputs": [
        {
          "internalType": "uint256",
          "name": "_count",
          "type": "uint256"
        }
      ],
      "name": "devMint",
      "outputs": [],
      "stateMutability": "nonpayable",
      "type": "function"
    },
    {
      "inputs": [
        {
          "internalType": "uint256",
          "name": "tokenId",
          "type": "uint256"
        }
      ],
      "name": "getApproved",
      "outputs": [
        {
          "internalType": "address",
          "name": "",
          "type": "address"
        }
      ],
      "stateMutability": "view",
      "type": "function"
    },
    {
      "inputs": [
        {
          "internalType": "address",
          "name": "owner",
          "type": "address"
        },
        {
          "internalType": "address",
          "name": "operator",
          "type": "address"
        }
      ],
      "name": "isApprovedForAll",
      "outputs": [
        {
          "internalType": "bool",
          "name": "",
          "type": "bool"
        }
      ],
      "stateMutability": "view",
      "type": "function"
    },
    {
      "inputs": [],
      "name": "maxPerMint",
      "outputs": [
        {
          "internalType": "uint256",
          "name": "",
          "type": "uint256"
        }
      ],
      "stateMutability": "view",
      "type": "function"
    },
    {
      "inputs": [],
      "name": "maxSupply",
      "outputs": [
        {
          "internalType": "uint256",
          "name": "",
          "type": "uint256"
        }
      ],
      "stateMutability": "view",
      "type": "function"
    },
    {
      "inputs": [
        {
          "internalType": "uint256",
          "name": "_count",
          "type": "uint256"
        }
      ],
      "name": "mint",
      "outputs": [],
      "stateMutability": "payable",
      "type": "function"
    },
    {
      "inputs": [],
      "name": "name",
      "outputs": [
        {
          "internalType": "string",
          "name": "",
          "type": "string"
        }
      ],
      "stateMutability": "view",
      "type": "function"
    },
    {
      "inputs": [],
      "name": "owner",
      "outputs": [
        {
          "internalType": "address",
          "name": "",
          "type": "address"
        }
      ],
      "stateMutability": "view",
      "type": "function"
    },
    {
      "inputs": [
        {
          "internalType": "uint256",
          "name": "tokenId",
          "type": "uint256"
        }
      ],
      "name": "ownerOf",
      "outputs": [
        {
          "internalType": "address",
          "name": "",
          "type": "address"
        }
      ],
      "stateMutability": "view",
      "type": "function"
    },
    {
      "inputs": [],
      "name": "pause",
      "outputs": [],
      "stateMutability": "nonpayable",
      "type": "function"
    },
    {
      "inputs": [
        {
          "internalType": "uint256",
          "name": "_count",
          "type": "uint256"
        },
        {
          "internalType": "bytes32",
          "name": "hash",
          "type": "bytes32"
        },
        {
          "internalType": "bytes",
          "name": "signature",
          "type": "bytes"
        }
      ],
      "name": "preSaleMint",
      "outputs": [],
      "stateMutability": "payable",
      "type": "function"
    },
    {
      "inputs": [],
      "name": "price",
      "outputs": [
        {
          "internalType": "uint256",
          "name": "",
          "type": "uint256"
        }
      ],
      "stateMutability": "view",
      "type": "function"
    },
    {
      "inputs": [],
      "name": "publicMint",
      "outputs": [
        {
          "internalType": "bool",
          "name": "",
          "type": "bool"
        }
      ],
      "stateMutability": "view",
      "type": "function"
    },
    {
      "inputs": [
        {
          "internalType": "bytes32",
          "name": "hash",
          "type": "bytes32"
        },
        {
          "internalType": "bytes",
          "name": "signature",
          "type": "bytes"
        }
      ],
      "name": "recoverSigner",
      "outputs": [
        {
          "internalType": "address",
          "name": "",
          "type": "address"
        }
      ],
      "stateMutability": "pure",
      "type": "function"
    },
    {
      "inputs": [],
      "name": "renounceOwnership",
      "outputs": [],
      "stateMutability": "nonpayable",
      "type": "function"
    },
    {
      "inputs": [
        {
          "internalType": "address",
          "name": "from",
          "type": "address"
        },
        {
          "internalType": "address",
          "name": "to",
          "type": "address"
        },
        {
          "internalType": "uint256",
          "name": "tokenId",
          "type": "uint256"
        }
      ],
      "name": "safeTransferFrom",
      "outputs": [],
      "stateMutability": "nonpayable",
      "type": "function"
    },
    {
      "inputs": [
        {
          "internalType": "address",
          "name": "from",
          "type": "address"
        },
        {
          "internalType": "address",
          "name": "to",
          "type": "address"
        },
        {
          "internalType": "uint256",
          "name": "tokenId",
          "type": "uint256"
        },
        {
          "internalType": "bytes",
          "name": "_data",
          "type": "bytes"
        }
      ],
      "name": "safeTransferFrom",
      "outputs": [],
      "stateMutability": "nonpayable",
      "type": "function"
    },
    {
      "inputs": [
        {
          "internalType": "address",
          "name": "operator",
          "type": "address"
        },
        {
          "internalType": "bool",
          "name": "approved",
          "type": "bool"
        }
      ],
      "name": "setApprovalForAll",
      "outputs": [],
      "stateMutability": "nonpayable",
      "type": "function"
    },
    {
      "inputs": [
        {
          "internalType": "string",
          "name": "_baseTokenURI",
          "type": "string"
        }
      ],
      "name": "setBaseURI",
      "outputs": [],
      "stateMutability": "nonpayable",
      "type": "function"
    },
    {
      "inputs": [
        {
          "internalType": "uint256",
          "name": "_price",
          "type": "uint256"
        }
      ],
      "name": "setPrice",
      "outputs": [],
      "stateMutability": "nonpayable",
      "type": "function"
    },
    {
      "inputs": [
        {
          "internalType": "bool",
          "name": "_publicMint",
          "type": "bool"
        }
      ],
      "name": "setPublicMint",
      "outputs": [],
      "stateMutability": "nonpayable",
      "type": "function"
    },
    {
      "inputs": [
        {
          "internalType": "bool",
          "name": "_whitelistMint",
          "type": "bool"
        }
      ],
      "name": "setWhitelistMint",
      "outputs": [],
      "stateMutability": "nonpayable",
      "type": "function"
    },
    {
      "inputs": [
        {
          "internalType": "bytes4",
          "name": "interfaceId",
          "type": "bytes4"
        }
      ],
      "name": "supportsInterface",
      "outputs": [
        {
          "internalType": "bool",
          "name": "",
          "type": "bool"
        }
      ],
      "stateMutability": "view",
      "type": "function"
    },
    {
      "inputs": [],
      "name": "symbol",
      "outputs": [
        {
          "internalType": "string",
          "name": "",
          "type": "string"
        }
      ],
      "stateMutability": "view",
      "type": "function"
    },
    {
      "inputs": [
        {
          "internalType": "uint256",
          "name": "index",
          "type": "uint256"
        }
      ],
      "name": "tokenByIndex",
      "outputs": [
        {
          "internalType": "uint256",
          "name": "",
          "type": "uint256"
        }
      ],
      "stateMutability": "view",
      "type": "function"
    },
    {
      "inputs": [
        {
          "internalType": "address",
          "name": "owner",
          "type": "address"
        },
        {
          "internalType": "uint256",
          "name": "index",
          "type": "uint256"
        }
      ],
      "name": "tokenOfOwnerByIndex",
      "outputs": [
        {
          "internalType": "uint256",
          "name": "",
          "type": "uint256"
        }
      ],
      "stateMutability": "view",
      "type": "function"
    },
    {
      "inputs": [
        {
          "internalType": "uint256",
          "name": "tokenId",
          "type": "uint256"
        }
      ],
      "name": "tokenURI",
      "outputs": [
        {
          "internalType": "string",
          "name": "",
          "type": "string"
        }
      ],
      "stateMutability": "view",
      "type": "function"
    },
    {
      "inputs": [
        {
          "internalType": "address",
          "name": "_owner",
          "type": "address"
        }
      ],
      "name": "tokensOfOwner",
      "outputs": [
        {
          "internalType": "uint256[]",
          "name": "",
          "type": "uint256[]"
        }
      ],
      "stateMutability": "view",
      "type": "function"
    },
    {
      "inputs": [],
      "name": "totalSupply",
      "outputs": [
        {
          "internalType": "uint256",
          "name": "",
          "type": "uint256"
        }
      ],
      "stateMutability": "view",
      "type": "function"
    },
    {
      "inputs": [
        {
          "internalType": "address",
          "name": "from",
          "type": "address"
        },
        {
          "internalType": "address",
          "name": "to",
          "type": "address"
        },
        {
          "internalType": "uint256",
          "name": "tokenId",
          "type": "uint256"
        }
      ],
      "name": "transferFrom",
      "outputs": [],
      "stateMutability": "nonpayable",
      "type": "function"
    },
    {
      "inputs": [
        {
          "internalType": "address",
          "name": "newOwner",
          "type": "address"
        }
      ],
      "name": "transferOwnership",
      "outputs": [],
      "stateMutability": "nonpayable",
      "type": "function"
    },
    {
      "inputs": [],
      "name": "whitelistMint",
      "outputs": [
        {
          "internalType": "bool",
          "name": "",
          "type": "bool"
        }
      ],
      "stateMutability": "view",
      "type": "function"
    },
    {
      "inputs": [],
      "name": "withdraw",
      "outputs": [],
      "stateMutability": "payable",
      "type": "function"
    }
  ],
  "bytecode": "0x608060405266b1a2bc2ec50000600c55600a600d556000600f60006101000a81548160ff0219169083151502179055506000600f60016101000a81548160ff0219169083151502179055503480156200005757600080fd5b5060405162005c3438038062005c3483398181016040528101906200007d91906200041a565b6040518060400160405280601181526020017f556e69636f726e204e6f646520436c75620000000000000000000000000000008152506040518060400160405280600581526020017f434f524e53000000000000000000000000000000000000000000000000000000815250816000908051906020019062000101929190620002f8565b5080600190805190602001906200011a929190620002f8565b5050506200013d620001316200015560201b60201c565b6200015d60201b60201c565b6200014e816200022360201b60201c565b5062000652565b600033905090565b6000600a60009054906101000a900473ffffffffffffffffffffffffffffffffffffffff16905081600a60006101000a81548173ffffffffffffffffffffffffffffffffffffffff021916908373ffffffffffffffffffffffffffffffffffffffff1602179055508173ffffffffffffffffffffffffffffffffffffffff168173ffffffffffffffffffffffffffffffffffffffff167f8be0079c531659141344cd1fd0a4f28419497f9722a3daafe3b4186f6b6457e060405160405180910390a35050565b620002336200015560201b60201c565b73ffffffffffffffffffffffffffffffffffffffff1662000259620002ce60201b60201c565b73ffffffffffffffffffffffffffffffffffffffff1614620002b2576040517f08c379a0000000000000000000000000000000000000000000000000000000008152600401620002a99062000486565b60405180910390fd5b80600e9080519060200190620002ca929190620002f8565b5050565b6000600a60009054906101000a900473ffffffffffffffffffffffffffffffffffffffff16905090565b82805462000306906200054e565b90600052602060002090601f0160209004810192826200032a576000855562000376565b82601f106200034557805160ff191683800117855562000376565b8280016001018555821562000376579182015b828111156200037557825182559160200191906001019062000358565b5b50905062000385919062000389565b5090565b5b80821115620003a45760008160009055506001016200038a565b5090565b6000620003bf620003b984620004d1565b620004a8565b905082815260208101848484011115620003d857600080fd5b620003e584828562000518565b509392505050565b600082601f830112620003ff57600080fd5b815162000411848260208601620003a8565b91505092915050565b6000602082840312156200042d57600080fd5b600082015167ffffffffffffffff8111156200044857600080fd5b6200045684828501620003ed565b91505092915050565b60006200046e60208362000507565b91506200047b8262000629565b602082019050919050565b60006020820190508181036000830152620004a1816200045f565b9050919050565b6000620004b4620004c7565b9050620004c2828262000584565b919050565b6000604051905090565b600067ffffffffffffffff821115620004ef57620004ee620005e9565b5b620004fa8262000618565b9050602081019050919050565b600082825260208201905092915050565b60005b83811015620005385780820151818401526020810190506200051b565b8381111562000548576000848401525b50505050565b600060028204905060018216806200056757607f821691505b602082108114156200057e576200057d620005ba565b5b50919050565b6200058f8262000618565b810181811067ffffffffffffffff82111715620005b157620005b0620005e9565b5b80604052505050565b7f4e487b7100000000000000000000000000000000000000000000000000000000600052602260045260246000fd5b7f4e487b7100000000000000000000000000000000000000000000000000000000600052604160045260246000fd5b6000601f19601f8301169050919050565b7f4f776e61626c653a2063616c6c6572206973206e6f7420746865206f776e6572600082015250565b6155d280620006626000396000f3fe60806040526004361061020f5760003560e01c806370a0823111610118578063a035b1fe116100a0578063c87b56dd1161006f578063c87b56dd1461075e578063d547cfb71461079b578063d5abeb01146107c6578063e985e9c5146107f1578063f2fde38b1461082e5761020f565b8063a035b1fe146106c5578063a0712d68146106f0578063a22cb4651461070c578063b88d4fde146107355761020f565b80638462151c116100e75780638462151c146105cc5780638da5cb5b1461060957806391b7f5ed1461063457806395d89b411461065d57806397aba7f9146106885761020f565b806370a0823114610536578063715018a614610573578063804f43cd1461058a5780638456cb59146105b55761020f565b80632f745c591161019b5780634f6ccce71161016a5780634f6ccce71461043f578063507e094f1461047c57806355f804b3146104a75780635d56d55e146104d05780636352211e146104f95761020f565b80632f745c59146103a6578063375a069a146103e35780633ccfd60b1461040c57806342842e0e146104165761020f565b80630e2d56cf116101e25780630e2d56cf146102e257806310bcf49b1461030b57806318160ddd1461032757806323b872dd1461035257806326092b831461037b5761020f565b806301ffc9a71461021457806306fdde0314610251578063081812fc1461027c578063095ea7b3146102b9575b600080fd5b34801561022057600080fd5b5061023b60048036038101906102369190613a91565b610857565b6040516102489190614312565b60405180910390f35b34801561025d57600080fd5b506102666108d1565b6040516102739190614372565b60405180910390f35b34801561028857600080fd5b506102a3600480360381019061029e9190613b24565b610963565b6040516102b09190614289565b60405180910390f35b3480156102c557600080fd5b506102e060048036038101906102db91906139d8565b6109e8565b005b3480156102ee57600080fd5b5061030960048036038101906103049190613a14565b610b00565b005b61032560048036038101906103209190613b4d565b610b99565b005b34801561033357600080fd5b5061033c610d9f565b60405161034991906147d4565b60405180910390f35b34801561035e57600080fd5b50610379600480360381019061037491906138d2565b610dac565b005b34801561038757600080fd5b50610390610e0c565b60405161039d9190614312565b60405180910390f35b3480156103b257600080fd5b506103cd60048036038101906103c891906139d8565b610e1f565b6040516103da91906147d4565b60405180910390f35b3480156103ef57600080fd5b5061040a60048036038101906104059190613b24565b610ec4565b005b610414611012565b005b34801561042257600080fd5b5061043d600480360381019061043891906138d2565b611186565b005b34801561044b57600080fd5b5061046660048036038101906104619190613b24565b6111a6565b60405161047391906147d4565b60405180910390f35b34801561048857600080fd5b5061049161123d565b60405161049e91906147d4565b60405180910390f35b3480156104b357600080fd5b506104ce60048036038101906104c99190613ae3565b611243565b005b3480156104dc57600080fd5b506104f760048036038101906104f29190613a14565b6112d9565b005b34801561050557600080fd5b50610520600480360381019061051b9190613b24565b611372565b60405161052d9190614289565b60405180910390f35b34801561054257600080fd5b5061055d6004803603810190610558919061386d565b611424565b60405161056a91906147d4565b60405180910390f35b34801561057f57600080fd5b506105886114dc565b005b34801561059657600080fd5b5061059f611564565b6040516105ac9190614312565b60405180910390f35b3480156105c157600080fd5b506105ca611577565b005b3480156105d857600080fd5b506105f360048036038101906105ee919061386d565b61162b565b60405161060091906142f0565b60405180910390f35b34801561061557600080fd5b5061061e611725565b60405161062b9190614289565b60405180910390f35b34801561064057600080fd5b5061065b60048036038101906106569190613b24565b61174f565b005b34801561066957600080fd5b506106726117d5565b60405161067f9190614372565b60405180910390f35b34801561069457600080fd5b506106af60048036038101906106aa9190613a3d565b611867565b6040516106bc9190614289565b60405180910390f35b3480156106d157600080fd5b506106da6118a6565b6040516106e791906147d4565b60405180910390f35b61070a60048036038101906107059190613b24565b6118ac565b005b34801561071857600080fd5b50610733600480360381019061072e919061399c565b611a32565b005b34801561074157600080fd5b5061075c60048036038101906107579190613921565b611a48565b005b34801561076a57600080fd5b5061078560048036038101906107809190613b24565b611aaa565b6040516107929190614372565b60405180910390f35b3480156107a757600080fd5b506107b0611b51565b6040516107bd9190614372565b60405180910390f35b3480156107d257600080fd5b506107db611bdf565b6040516107e891906147d4565b60405180910390f35b3480156107fd57600080fd5b5061081860048036038101906108139190613896565b611be5565b6040516108259190614312565b60405180910390f35b34801561083a57600080fd5b506108556004803603810190610850919061386d565b611c79565b005b60007f780e9d63000000000000000000000000000000000000000000000000000000007bffffffffffffffffffffffffffffffffffffffffffffffffffffffff1916827bffffffffffffffffffffffffffffffffffffffffffffffffffffffff191614806108ca57506108c982611d71565b5b9050919050565b6060600080546108e090614adf565b80601f016020809104026020016040519081016040528092919081815260200182805461090c90614adf565b80156109595780601f1061092e57610100808354040283529160200191610959565b820191906000526020600020905b81548152906001019060200180831161093c57829003601f168201915b5050505050905090565b600061096e82611e53565b6109ad576040517f08c379a00000000000000000000000000000000000000000000000000000000081526004016109a490614694565b60405180910390fd5b6004600083815260200190815260200160002060009054906101000a900473ffffffffffffffffffffffffffffffffffffffff169050919050565b60006109f382611372565b90508073ffffffffffffffffffffffffffffffffffffffff168373ffffffffffffffffffffffffffffffffffffffff161415610a64576040517f08c379a0000000000000000000000000000000000000000000000000000000008152600401610a5b906146f4565b60405180910390fd5b8073ffffffffffffffffffffffffffffffffffffffff16610a83611ebf565b73ffffffffffffffffffffffffffffffffffffffff161480610ab25750610ab181610aac611ebf565b611be5565b5b610af1576040517f08c379a0000000000000000000000000000000000000000000000000000000008152600401610ae8906145d4565b60405180910390fd5b610afb8383611ec7565b505050565b610b08611ebf565b73ffffffffffffffffffffffffffffffffffffffff16610b26611725565b73ffffffffffffffffffffffffffffffffffffffff1614610b7c576040517f08c379a0000000000000000000000000000000000000000000000000000000008152600401610b73906146b4565b60405180910390fd5b80600f60006101000a81548160ff02191690831515021790555050565b6000610ba5600b611f80565b9050600f60019054906101000a900460ff16610bf6576040517f08c379a0000000000000000000000000000000000000000000000000000000008152600401610bed906147b4565b60405180910390fd5b611388610c0c8583611f8e90919063ffffffff16565b10610c4c576040517f08c379a0000000000000000000000000000000000000000000000000000000008152600401610c4390614674565b60405180910390fd5b600084118015610c5e5750600d548411155b610c9d576040517f08c379a0000000000000000000000000000000000000000000000000000000008152600401610c9490614414565b60405180910390fd5b610cb284600c54611fa490919063ffffffff16565b341015610cf4576040517f08c379a0000000000000000000000000000000000000000000000000000000008152600401610ceb90614434565b60405180910390fd5b610cfc611725565b73ffffffffffffffffffffffffffffffffffffffff16610d1c8484611867565b73ffffffffffffffffffffffffffffffffffffffff1614610d72576040517f08c379a0000000000000000000000000000000000000000000000000000000008152600401610d6990614714565b60405180910390fd5b60005b84811015610d9857610d85611fba565b8080610d9090614b42565b915050610d75565b5050505050565b6000600880549050905090565b610dbd610db7611ebf565b82611fdf565b610dfc576040517f08c379a0000000000000000000000000000000000000000000000000000000008152600401610df390614754565b60405180910390fd5b610e078383836120bd565b505050565b600f60009054906101000a900460ff1681565b6000610e2a83611424565b8210610e6b576040517f08c379a0000000000000000000000000000000000000000000000000000000008152600401610e62906143f4565b60405180910390fd5b600660008473ffffffffffffffffffffffffffffffffffffffff1673ffffffffffffffffffffffffffffffffffffffff168152602001908152602001600020600083815260200190815260200160002054905092915050565b610ecc611ebf565b73ffffffffffffffffffffffffffffffffffffffff16610eea611725565b73ffffffffffffffffffffffffffffffffffffffff1614610f40576040517f08c379a0000000000000000000000000000000000000000000000000000000008152600401610f37906146b4565b60405180910390fd5b6000610f4c600b611f80565b9050611388610f648383611f8e90919063ffffffff16565b10610fa4576040517f08c379a0000000000000000000000000000000000000000000000000000000008152600401610f9b90614674565b60405180910390fd5b60008211610fe7576040517f08c379a0000000000000000000000000000000000000000000000000000000008152600401610fde906143d4565b60405180910390fd5b60005b8281101561100d57610ffa611fba565b808061100590614b42565b915050610fea565b505050565b61101a611ebf565b73ffffffffffffffffffffffffffffffffffffffff16611038611725565b73ffffffffffffffffffffffffffffffffffffffff161461108e576040517f08c379a0000000000000000000000000000000000000000000000000000000008152600401611085906146b4565b60405180910390fd5b6000479050600081116110d6576040517f08c379a00000000000000000000000000000000000000000000000000000000081526004016110cd90614534565b60405180910390fd5b60003373ffffffffffffffffffffffffffffffffffffffff16826040516110fc90614274565b60006040518083038185875af1925050503d8060008114611139576040519150601f19603f3d011682016040523d82523d6000602084013e61113e565b606091505b5050905080611182576040517f08c379a000000000000000000000000000000000000000000000000000000000815260040161117990614734565b60405180910390fd5b5050565b6111a183838360405180602001604052806000815250611a48565b505050565b60006111b0610d9f565b82106111f1576040517f08c379a00000000000000000000000000000000000000000000000000000000081526004016111e890614794565b60405180910390fd5b6008828154811061122b577f4e487b7100000000000000000000000000000000000000000000000000000000600052603260045260246000fd5b90600052602060002001549050919050565b600d5481565b61124b611ebf565b73ffffffffffffffffffffffffffffffffffffffff16611269611725565b73ffffffffffffffffffffffffffffffffffffffff16146112bf576040517f08c379a00000000000000000000000000000000000000000000000000000000081526004016112b6906146b4565b60405180910390fd5b80600e90805190602001906112d592919061367c565b5050565b6112e1611ebf565b73ffffffffffffffffffffffffffffffffffffffff166112ff611725565b73ffffffffffffffffffffffffffffffffffffffff1614611355576040517f08c379a000000000000000000000000000000000000000000000000000000000815260040161134c906146b4565b60405180910390fd5b80600f60016101000a81548160ff02191690831515021790555050565b6000806002600084815260200190815260200160002060009054906101000a900473ffffffffffffffffffffffffffffffffffffffff169050600073ffffffffffffffffffffffffffffffffffffffff168173ffffffffffffffffffffffffffffffffffffffff16141561141b576040517f08c379a000000000000000000000000000000000000000000000000000000000815260040161141290614614565b60405180910390fd5b80915050919050565b60008073ffffffffffffffffffffffffffffffffffffffff168273ffffffffffffffffffffffffffffffffffffffff161415611495576040517f08c379a000000000000000000000000000000000000000000000000000000000815260040161148c906145f4565b60405180910390fd5b600360008373ffffffffffffffffffffffffffffffffffffffff1673ffffffffffffffffffffffffffffffffffffffff168152602001908152602001600020549050919050565b6114e4611ebf565b73ffffffffffffffffffffffffffffffffffffffff16611502611725565b73ffffffffffffffffffffffffffffffffffffffff1614611558576040517f08c379a000000000000000000000000000000000000000000000000000000000815260040161154f906146b4565b60405180910390fd5b6115626000612324565b565b600f60019054906101000a900460ff1681565b61157f611ebf565b73ffffffffffffffffffffffffffffffffffffffff1661159d611725565b73ffffffffffffffffffffffffffffffffffffffff16146115f3576040517f08c379a00000000000000000000000000000000000000000000000000000000081526004016115ea906146b4565b60405180910390fd5b6000600f60016101000a81548160ff0219169083151502179055506000600f60006101000a81548160ff021916908315150217905550565b6060600061163883611424565b905060008167ffffffffffffffff81111561167c577f4e487b7100000000000000000000000000000000000000000000000000000000600052604160045260246000fd5b6040519080825280602002602001820160405280156116aa5781602001602082028036833780820191505090505b50905060005b8281101561171a576116c28582610e1f565b8282815181106116fb577f4e487b7100000000000000000000000000000000000000000000000000000000600052603260045260246000fd5b602002602001018181525050808061171290614b42565b9150506116b0565b508092505050919050565b6000600a60009054906101000a900473ffffffffffffffffffffffffffffffffffffffff16905090565b611757611ebf565b73ffffffffffffffffffffffffffffffffffffffff16611775611725565b73ffffffffffffffffffffffffffffffffffffffff16146117cb576040517f08c379a00000000000000000000000000000000000000000000000000000000081526004016117c2906146b4565b60405180910390fd5b80600c8190555050565b6060600180546117e490614adf565b80601f016020809104026020016040519081016040528092919081815260200182805461181090614adf565b801561185d5780601f106118325761010080835404028352916020019161185d565b820191906000526020600020905b81548152906001019060200180831161184057829003601f168201915b5050505050905090565b6000808360405160200161187b919061424e565b60405160208183030381529060405280519060200120905061189d81846123ea565b91505092915050565b600c5481565b60006118b8600b611f80565b9050600f60009054906101000a900460ff16611909576040517f08c379a000000000000000000000000000000000000000000000000000000000815260040161190090614774565b60405180910390fd5b61138861191f8383611f8e90919063ffffffff16565b1061195f576040517f08c379a000000000000000000000000000000000000000000000000000000000815260040161195690614474565b60405180910390fd5b6000821180156119715750600d548211155b6119b0576040517f08c379a00000000000000000000000000000000000000000000000000000000081526004016119a790614594565b60405180910390fd5b6119c582600c54611fa490919063ffffffff16565b341015611a07576040517f08c379a00000000000000000000000000000000000000000000000000000000081526004016119fe90614574565b60405180910390fd5b60005b82811015611a2d57611a1a611fba565b8080611a2590614b42565b915050611a0a565b505050565b611a44611a3d611ebf565b8383612411565b5050565b611a59611a53611ebf565b83611fdf565b611a98576040517f08c379a0000000000000000000000000000000000000000000000000000000008152600401611a8f90614754565b60405180910390fd5b611aa48484848461257e565b50505050565b6060611ab582611e53565b611af4576040517f08c379a0000000000000000000000000000000000000000000000000000000008152600401611aeb906146d4565b60405180910390fd5b6000611afe6125da565b90506000815111611b1e5760405180602001604052806000815250611b49565b80611b288461266c565b604051602001611b3992919061422a565b6040516020818303038152906040525b915050919050565b600e8054611b5e90614adf565b80601f0160208091040260200160405190810160405280929190818152602001828054611b8a90614adf565b8015611bd75780601f10611bac57610100808354040283529160200191611bd7565b820191906000526020600020905b815481529060010190602001808311611bba57829003601f168201915b505050505081565b61138881565b6000600560008473ffffffffffffffffffffffffffffffffffffffff1673ffffffffffffffffffffffffffffffffffffffff16815260200190815260200160002060008373ffffffffffffffffffffffffffffffffffffffff1673ffffffffffffffffffffffffffffffffffffffff16815260200190815260200160002060009054906101000a900460ff16905092915050565b611c81611ebf565b73ffffffffffffffffffffffffffffffffffffffff16611c9f611725565b73ffffffffffffffffffffffffffffffffffffffff1614611cf5576040517f08c379a0000000000000000000000000000000000000000000000000000000008152600401611cec906146b4565b60405180910390fd5b600073ffffffffffffffffffffffffffffffffffffffff168173ffffffffffffffffffffffffffffffffffffffff161415611d65576040517f08c379a0000000000000000000000000000000000000000000000000000000008152600401611d5c90614494565b60405180910390fd5b611d6e81612324565b50565b60007f80ac58cd000000000000000000000000000000000000000000000000000000007bffffffffffffffffffffffffffffffffffffffffffffffffffffffff1916827bffffffffffffffffffffffffffffffffffffffffffffffffffffffff19161480611e3c57507f5b5e139f000000000000000000000000000000000000000000000000000000007bffffffffffffffffffffffffffffffffffffffffffffffffffffffff1916827bffffffffffffffffffffffffffffffffffffffffffffffffffffffff1916145b80611e4c5750611e4b82612819565b5b9050919050565b60008073ffffffffffffffffffffffffffffffffffffffff166002600084815260200190815260200160002060009054906101000a900473ffffffffffffffffffffffffffffffffffffffff1673ffffffffffffffffffffffffffffffffffffffff1614159050919050565b600033905090565b816004600083815260200190815260200160002060006101000a81548173ffffffffffffffffffffffffffffffffffffffff021916908373ffffffffffffffffffffffffffffffffffffffff160217905550808273ffffffffffffffffffffffffffffffffffffffff16611f3a83611372565b73ffffffffffffffffffffffffffffffffffffffff167f8c5be1e5ebec7d5bd14f71427d1e84f3dd0314c0f7b2291e5b200ac8c7c3b92560405160405180910390a45050565b600081600001549050919050565b60008183611f9c91906148fd565b905092915050565b60008183611fb29190614984565b905092915050565b6000611fc6600b611f80565b9050611fd23382612883565b611fdc600b6128a1565b50565b6000611fea82611e53565b612029576040517f08c379a0000000000000000000000000000000000000000000000000000000008152600401612020906145b4565b60405180910390fd5b600061203483611372565b90508073ffffffffffffffffffffffffffffffffffffffff168473ffffffffffffffffffffffffffffffffffffffff1614806120a357508373ffffffffffffffffffffffffffffffffffffffff1661208b84610963565b73ffffffffffffffffffffffffffffffffffffffff16145b806120b457506120b38185611be5565b5b91505092915050565b8273ffffffffffffffffffffffffffffffffffffffff166120dd82611372565b73ffffffffffffffffffffffffffffffffffffffff1614612133576040517f08c379a000000000000000000000000000000000000000000000000000000000815260040161212a906144b4565b60405180910390fd5b600073ffffffffffffffffffffffffffffffffffffffff168273ffffffffffffffffffffffffffffffffffffffff1614156121a3576040517f08c379a000000000000000000000000000000000000000000000000000000000815260040161219a906144f4565b60405180910390fd5b6121ae8383836128b7565b6121b9600082611ec7565b6001600360008573ffffffffffffffffffffffffffffffffffffffff1673ffffffffffffffffffffffffffffffffffffffff168152602001908152602001600020600082825461220991906149de565b925050819055506001600360008473ffffffffffffffffffffffffffffffffffffffff1673ffffffffffffffffffffffffffffffffffffffff168152602001908152602001600020600082825461226091906148fd565b92505081905550816002600083815260200190815260200160002060006101000a81548173ffffffffffffffffffffffffffffffffffffffff021916908373ffffffffffffffffffffffffffffffffffffffff160217905550808273ffffffffffffffffffffffffffffffffffffffff168473ffffffffffffffffffffffffffffffffffffffff167fddf252ad1be2c89b69c2b068fc378daa952ba7f163c4a11628f55a4df523b3ef60405160405180910390a461231f8383836129cb565b505050565b6000600a60009054906101000a900473ffffffffffffffffffffffffffffffffffffffff16905081600a60006101000a81548173ffffffffffffffffffffffffffffffffffffffff021916908373ffffffffffffffffffffffffffffffffffffffff1602179055508173ffffffffffffffffffffffffffffffffffffffff168173ffffffffffffffffffffffffffffffffffffffff167f8be0079c531659141344cd1fd0a4f28419497f9722a3daafe3b4186f6b6457e060405160405180910390a35050565b60008060006123f985856129d0565b9150915061240681612a53565b819250505092915050565b8173ffffffffffffffffffffffffffffffffffffffff168373ffffffffffffffffffffffffffffffffffffffff161415612480576040517f08c379a000000000000000000000000000000000000000000000000000000000815260040161247790614514565b60405180910390fd5b80600560008573ffffffffffffffffffffffffffffffffffffffff1673ffffffffffffffffffffffffffffffffffffffff16815260200190815260200160002060008473ffffffffffffffffffffffffffffffffffffffff1673ffffffffffffffffffffffffffffffffffffffff16815260200190815260200160002060006101000a81548160ff0219169083151502179055508173ffffffffffffffffffffffffffffffffffffffff168373ffffffffffffffffffffffffffffffffffffffff167f17307eab39ab6107e8899845ad3d59bd9653f200f220920489ca2b5937696c31836040516125719190614312565b60405180910390a3505050565b6125898484846120bd565b61259584848484612da4565b6125d4576040517f08c379a00000000000000000000000000000000000000000000000000000000081526004016125cb90614454565b60405180910390fd5b50505050565b6060600e80546125e990614adf565b80601f016020809104026020016040519081016040528092919081815260200182805461261590614adf565b80156126625780601f1061263757610100808354040283529160200191612662565b820191906000526020600020905b81548152906001019060200180831161264557829003601f168201915b5050505050905090565b606060008214156126b4576040518060400160405280600181526020017f30000000000000000000000000000000000000000000000000000000000000008152509050612814565b600082905060005b600082146126e65780806126cf90614b42565b915050600a826126df9190614953565b91506126bc565b60008167ffffffffffffffff811115612728577f4e487b7100000000000000000000000000000000000000000000000000000000600052604160045260246000fd5b6040519080825280601f01601f19166020018201604052801561275a5781602001600182028036833780820191505090505b5090505b6000851461280d5760018261277391906149de565b9150600a856127829190614b95565b603061278e91906148fd565b60f81b8183815181106127ca577f4e487b7100000000000000000000000000000000000000000000000000000000600052603260045260246000fd5b60200101907effffffffffffffffffffffffffffffffffffffffffffffffffffffffffffff1916908160001a905350600a856128069190614953565b945061275e565b8093505050505b919050565b60007f01ffc9a7000000000000000000000000000000000000000000000000000000007bffffffffffffffffffffffffffffffffffffffffffffffffffffffff1916827bffffffffffffffffffffffffffffffffffffffffffffffffffffffff1916149050919050565b61289d828260405180602001604052806000815250612f3b565b5050565b6001816000016000828254019250508190555050565b6128c2838383612f96565b600073ffffffffffffffffffffffffffffffffffffffff168373ffffffffffffffffffffffffffffffffffffffff1614156129055761290081612f9b565b612944565b8173ffffffffffffffffffffffffffffffffffffffff168373ffffffffffffffffffffffffffffffffffffffff1614612943576129428382612fe4565b5b5b600073ffffffffffffffffffffffffffffffffffffffff168273ffffffffffffffffffffffffffffffffffffffff1614156129875761298281613151565b6129c6565b8273ffffffffffffffffffffffffffffffffffffffff168273ffffffffffffffffffffffffffffffffffffffff16146129c5576129c48282613294565b5b5b505050565b505050565b600080604183511415612a125760008060006020860151925060408601519150606086015160001a9050612a0687828585613313565b94509450505050612a4c565b604083511415612a43576000806020850151915060408501519050612a38868383613420565b935093505050612a4c565b60006002915091505b9250929050565b60006004811115612a8d577f4e487b7100000000000000000000000000000000000000000000000000000000600052602160045260246000fd5b816004811115612ac6577f4e487b7100000000000000000000000000000000000000000000000000000000600052602160045260246000fd5b1415612ad157612da1565b60016004811115612b0b577f4e487b7100000000000000000000000000000000000000000000000000000000600052602160045260246000fd5b816004811115612b44577f4e487b7100000000000000000000000000000000000000000000000000000000600052602160045260246000fd5b1415612b85576040517f08c379a0000000000000000000000000000000000000000000000000000000008152600401612b7c90614394565b60405180910390fd5b60026004811115612bbf577f4e487b7100000000000000000000000000000000000000000000000000000000600052602160045260246000fd5b816004811115612bf8577f4e487b7100000000000000000000000000000000000000000000000000000000600052602160045260246000fd5b1415612c39576040517f08c379a0000000000000000000000000000000000000000000000000000000008152600401612c30906143b4565b60405180910390fd5b60036004811115612c73577f4e487b7100000000000000000000000000000000000000000000000000000000600052602160045260246000fd5b816004811115612cac577f4e487b7100000000000000000000000000000000000000000000000000000000600052602160045260246000fd5b1415612ced576040517f08c379a0000000000000000000000000000000000000000000000000000000008152600401612ce490614554565b60405180910390fd5b600480811115612d26577f4e487b7100000000000000000000000000000000000000000000000000000000600052602160045260246000fd5b816004811115612d5f577f4e487b7100000000000000000000000000000000000000000000000000000000600052602160045260246000fd5b1415612da0576040517f08c379a0000000000000000000000000000000000000000000000000000000008152600401612d9790614634565b60405180910390fd5b5b50565b6000612dc58473ffffffffffffffffffffffffffffffffffffffff1661347f565b15612f2e578373ffffffffffffffffffffffffffffffffffffffff1663150b7a02612dee611ebf565b8786866040518563ffffffff1660e01b8152600401612e1094939291906142a4565b602060405180830381600087803b158015612e2a57600080fd5b505af1925050508015612e5b57506040513d601f19601f82011682018060405250810190612e589190613aba565b60015b612ede573d8060008114612e8b576040519150601f19603f3d011682016040523d82523d6000602084013e612e90565b606091505b50600081511415612ed6576040517f08c379a0000000000000000000000000000000000000000000000000000000008152600401612ecd90614454565b60405180910390fd5b805181602001fd5b63150b7a0260e01b7bffffffffffffffffffffffffffffffffffffffffffffffffffffffff1916817bffffffffffffffffffffffffffffffffffffffffffffffffffffffff191614915050612f33565b600190505b949350505050565b612f4583836134a2565b612f526000848484612da4565b612f91576040517f08c379a0000000000000000000000000000000000000000000000000000000008152600401612f8890614454565b60405180910390fd5b505050565b505050565b6008805490506009600083815260200190815260200160002081905550600881908060018154018082558091505060019003906000526020600020016000909190919091505550565b60006001612ff184611424565b612ffb91906149de565b90506000600760008481526020019081526020016000205490508181146130e0576000600660008673ffffffffffffffffffffffffffffffffffffffff1673ffffffffffffffffffffffffffffffffffffffff168152602001908152602001600020600084815260200190815260200160002054905080600660008773ffffffffffffffffffffffffffffffffffffffff1673ffffffffffffffffffffffffffffffffffffffff168152602001908152602001600020600084815260200190815260200160002081905550816007600083815260200190815260200160002081905550505b6007600084815260200190815260200160002060009055600660008573ffffffffffffffffffffffffffffffffffffffff1673ffffffffffffffffffffffffffffffffffffffff16815260200190815260200160002060008381526020019081526020016000206000905550505050565b6000600160088054905061316591906149de565b90506000600960008481526020019081526020016000205490506000600883815481106131bb577f4e487b7100000000000000000000000000000000000000000000000000000000600052603260045260246000fd5b906000526020600020015490508060088381548110613203577f4e487b7100000000000000000000000000000000000000000000000000000000600052603260045260246000fd5b906000526020600020018190555081600960008381526020019081526020016000208190555060096000858152602001908152602001600020600090556008805480613278577f4e487b7100000000000000000000000000000000000000000000000000000000600052603160045260246000fd5b6001900381819060005260206000200160009055905550505050565b600061329f83611424565b905081600660008573ffffffffffffffffffffffffffffffffffffffff1673ffffffffffffffffffffffffffffffffffffffff168152602001908152602001600020600083815260200190815260200160002081905550806007600084815260200190815260200160002081905550505050565b6000807f7fffffffffffffffffffffffffffffff5d576e7357a4501ddfe92f46681b20a08360001c111561334e576000600391509150613417565b601b8560ff16141580156133665750601c8560ff1614155b15613378576000600491509150613417565b60006001878787876040516000815260200160405260405161339d949392919061432d565b6020604051602081039080840390855afa1580156133bf573d6000803e3d6000fd5b505050602060405103519050600073ffffffffffffffffffffffffffffffffffffffff168173ffffffffffffffffffffffffffffffffffffffff16141561340e57600060019250925050613417565b80600092509250505b94509492505050565b60008060007f7fffffffffffffffffffffffffffffffffffffffffffffffffffffffffffffff60001b841690506000601b60ff8660001c901c61346391906148fd565b905061347187828885613313565b935093505050935093915050565b6000808273ffffffffffffffffffffffffffffffffffffffff163b119050919050565b600073ffffffffffffffffffffffffffffffffffffffff168273ffffffffffffffffffffffffffffffffffffffff161415613512576040517f08c379a000000000000000000000000000000000000000000000000000000000815260040161350990614654565b60405180910390fd5b61351b81611e53565b1561355b576040517f08c379a0000000000000000000000000000000000000000000000000000000008152600401613552906144d4565b60405180910390fd5b613567600083836128b7565b6001600360008473ffffffffffffffffffffffffffffffffffffffff1673ffffffffffffffffffffffffffffffffffffffff16815260200190815260200160002060008282546135b791906148fd565b92505081905550816002600083815260200190815260200160002060006101000a81548173ffffffffffffffffffffffffffffffffffffffff021916908373ffffffffffffffffffffffffffffffffffffffff160217905550808273ffffffffffffffffffffffffffffffffffffffff16600073ffffffffffffffffffffffffffffffffffffffff167fddf252ad1be2c89b69c2b068fc378daa952ba7f163c4a11628f55a4df523b3ef60405160405180910390a4613678600083836129cb565b5050565b82805461368890614adf565b90600052602060002090601f0160209004810192826136aa57600085556136f1565b82601f106136c357805160ff19168380011785556136f1565b828001600101855582156136f1579182015b828111156136f05782518255916020019190600101906136d5565b5b5090506136fe9190613702565b5090565b5b8082111561371b576000816000905550600101613703565b5090565b600061373261372d84614814565b6147ef565b90508281526020810184848401111561374a57600080fd5b613755848285614a9d565b509392505050565b600061377061376b84614845565b6147ef565b90508281526020810184848401111561378857600080fd5b613793848285614a9d565b509392505050565b6000813590506137aa81615529565b92915050565b6000813590506137bf81615540565b92915050565b6000813590506137d481615557565b92915050565b6000813590506137e98161556e565b92915050565b6000815190506137fe8161556e565b92915050565b600082601f83011261381557600080fd5b813561382584826020860161371f565b91505092915050565b600082601f83011261383f57600080fd5b813561384f84826020860161375d565b91505092915050565b60008135905061386781615585565b92915050565b60006020828403121561387f57600080fd5b600061388d8482850161379b565b91505092915050565b600080604083850312156138a957600080fd5b60006138b78582860161379b565b92505060206138c88582860161379b565b9150509250929050565b6000806000606084860312156138e757600080fd5b60006138f58682870161379b565b93505060206139068682870161379b565b925050604061391786828701613858565b9150509250925092565b6000806000806080858703121561393757600080fd5b60006139458782880161379b565b94505060206139568782880161379b565b935050604061396787828801613858565b925050606085013567ffffffffffffffff81111561398457600080fd5b61399087828801613804565b91505092959194509250565b600080604083850312156139af57600080fd5b60006139bd8582860161379b565b92505060206139ce858286016137b0565b9150509250929050565b600080604083850312156139eb57600080fd5b60006139f98582860161379b565b9250506020613a0a85828601613858565b9150509250929050565b600060208284031215613a2657600080fd5b6000613a34848285016137b0565b91505092915050565b60008060408385031215613a5057600080fd5b6000613a5e858286016137c5565b925050602083013567ffffffffffffffff811115613a7b57600080fd5b613a8785828601613804565b9150509250929050565b600060208284031215613aa357600080fd5b6000613ab1848285016137da565b91505092915050565b600060208284031215613acc57600080fd5b6000613ada848285016137ef565b91505092915050565b600060208284031215613af557600080fd5b600082013567ffffffffffffffff811115613b0f57600080fd5b613b1b8482850161382e565b91505092915050565b600060208284031215613b3657600080fd5b6000613b4484828501613858565b91505092915050565b600080600060608486031215613b6257600080fd5b6000613b7086828701613858565b9350506020613b81868287016137c5565b925050604084013567ffffffffffffffff811115613b9e57600080fd5b613baa86828701613804565b9150509250925092565b6000613bc083836141fd565b60208301905092915050565b613bd581614a12565b82525050565b6000613be682614886565b613bf081856148b4565b9350613bfb83614876565b8060005b83811015613c2c578151613c138882613bb4565b9750613c1e836148a7565b925050600181019050613bff565b5085935050505092915050565b613c4281614a24565b82525050565b613c5181614a30565b82525050565b613c68613c6382614a30565b614b8b565b82525050565b6000613c7982614891565b613c8381856148c5565b9350613c93818560208601614aac565b613c9c81614c82565b840191505092915050565b6000613cb28261489c565b613cbc81856148e1565b9350613ccc818560208601614aac565b613cd581614c82565b840191505092915050565b6000613ceb8261489c565b613cf581856148f2565b9350613d05818560208601614aac565b80840191505092915050565b6000613d1e6018836148e1565b9150613d2982614c93565b602082019050919050565b6000613d41601f836148e1565b9150613d4c82614cbc565b602082019050919050565b6000613d64601c836148f2565b9150613d6f82614ce5565b601c82019050919050565b6000613d87601f836148e1565b9150613d9282614d0e565b602082019050919050565b6000613daa602b836148e1565b9150613db582614d37565b604082019050919050565b6000613dcd6024836148e1565b9150613dd882614d86565b604082019050919050565b6000613df06021836148e1565b9150613dfb82614dd5565b604082019050919050565b6000613e136032836148e1565b9150613e1e82614e24565b604082019050919050565b6000613e366018836148e1565b9150613e4182614e73565b602082019050919050565b6000613e596026836148e1565b9150613e6482614e9c565b604082019050919050565b6000613e7c6025836148e1565b9150613e8782614eeb565b604082019050919050565b6000613e9f601c836148e1565b9150613eaa82614f3a565b602082019050919050565b6000613ec26024836148e1565b9150613ecd82614f63565b604082019050919050565b6000613ee56019836148e1565b9150613ef082614fb2565b602082019050919050565b6000613f086014836148e1565b9150613f1382614fdb565b602082019050919050565b6000613f2b6022836148e1565b9150613f3682615004565b604082019050919050565b6000613f4e6022836148e1565b9150613f5982615053565b604082019050919050565b6000613f716025836148e1565b9150613f7c826150a2565b604082019050919050565b6000613f94602c836148e1565b9150613f9f826150f1565b604082019050919050565b6000613fb76038836148e1565b9150613fc282615140565b604082019050919050565b6000613fda602a836148e1565b9150613fe58261518f565b604082019050919050565b6000613ffd6029836148e1565b9150614008826151de565b604082019050919050565b60006140206022836148e1565b915061402b8261522d565b604082019050919050565b60006140436020836148e1565b915061404e8261527c565b602082019050919050565b60006140666017836148e1565b9150614071826152a5565b602082019050919050565b6000614089602c836148e1565b9150614094826152ce565b604082019050919050565b60006140ac6020836148e1565b91506140b78261531d565b602082019050919050565b60006140cf602f836148e1565b91506140da82615346565b604082019050919050565b60006140f26021836148e1565b91506140fd82615395565b604082019050919050565b6000614115601b836148e1565b9150614120826153e4565b602082019050919050565b60006141386000836148d6565b91506141438261540d565b600082019050919050565b600061415b6010836148e1565b915061416682615410565b602082019050919050565b600061417e6031836148e1565b915061418982615439565b604082019050919050565b60006141a1601a836148e1565b91506141ac82615488565b602082019050919050565b60006141c4602c836148e1565b91506141cf826154b1565b604082019050919050565b60006141e76016836148e1565b91506141f282615500565b602082019050919050565b61420681614a86565b82525050565b61421581614a86565b82525050565b61422481614a90565b82525050565b60006142368285613ce0565b91506142428284613ce0565b91508190509392505050565b600061425982613d57565b91506142658284613c57565b60208201915081905092915050565b600061427f8261412b565b9150819050919050565b600060208201905061429e6000830184613bcc565b92915050565b60006080820190506142b96000830187613bcc565b6142c66020830186613bcc565b6142d3604083018561420c565b81810360608301526142e58184613c6e565b905095945050505050565b6000602082019050818103600083015261430a8184613bdb565b905092915050565b60006020820190506143276000830184613c39565b92915050565b60006080820190506143426000830187613c48565b61434f602083018661421b565b61435c6040830185613c48565b6143696060830184613c48565b95945050505050565b6000602082019050818103600083015261438c8184613ca7565b905092915050565b600060208201905081810360008301526143ad81613d11565b9050919050565b600060208201905081810360008301526143cd81613d34565b9050919050565b600060208201905081810360008301526143ed81613d7a565b9050919050565b6000602082019050818103600083015261440d81613d9d565b9050919050565b6000602082019050818103600083015261442d81613dc0565b9050919050565b6000602082019050818103600083015261444d81613de3565b9050919050565b6000602082019050818103600083015261446d81613e06565b9050919050565b6000602082019050818103600083015261448d81613e29565b9050919050565b600060208201905081810360008301526144ad81613e4c565b9050919050565b600060208201905081810360008301526144cd81613e6f565b9050919050565b600060208201905081810360008301526144ed81613e92565b9050919050565b6000602082019050818103600083015261450d81613eb5565b9050919050565b6000602082019050818103600083015261452d81613ed8565b9050919050565b6000602082019050818103600083015261454d81613efb565b9050919050565b6000602082019050818103600083015261456d81613f1e565b9050919050565b6000602082019050818103600083015261458d81613f41565b9050919050565b600060208201905081810360008301526145ad81613f64565b9050919050565b600060208201905081810360008301526145cd81613f87565b9050919050565b600060208201905081810360008301526145ed81613faa565b9050919050565b6000602082019050818103600083015261460d81613fcd565b9050919050565b6000602082019050818103600083015261462d81613ff0565b9050919050565b6000602082019050818103600083015261464d81614013565b9050919050565b6000602082019050818103600083015261466d81614036565b9050919050565b6000602082019050818103600083015261468d81614059565b9050919050565b600060208201905081810360008301526146ad8161407c565b9050919050565b600060208201905081810360008301526146cd8161409f565b9050919050565b600060208201905081810360008301526146ed816140c2565b9050919050565b6000602082019050818103600083015261470d816140e5565b9050919050565b6000602082019050818103600083015261472d81614108565b9050919050565b6000602082019050818103600083015261474d8161414e565b9050919050565b6000602082019050818103600083015261476d81614171565b9050919050565b6000602082019050818103600083015261478d81614194565b9050919050565b600060208201905081810360008301526147ad816141b7565b9050919050565b600060208201905081810360008301526147cd816141da565b9050919050565b60006020820190506147e9600083018461420c565b92915050565b60006147f961480a565b90506148058282614b11565b919050565b6000604051905090565b600067ffffffffffffffff82111561482f5761482e614c53565b5b61483882614c82565b9050602081019050919050565b600067ffffffffffffffff8211156148605761485f614c53565b5b61486982614c82565b9050602081019050919050565b6000819050602082019050919050565b600081519050919050565b600081519050919050565b600081519050919050565b6000602082019050919050565b600082825260208201905092915050565b600082825260208201905092915050565b600081905092915050565b600082825260208201905092915050565b600081905092915050565b600061490882614a86565b915061491383614a86565b9250827fffffffffffffffffffffffffffffffffffffffffffffffffffffffffffffffff0382111561494857614947614bc6565b5b828201905092915050565b600061495e82614a86565b915061496983614a86565b92508261497957614978614bf5565b5b828204905092915050565b600061498f82614a86565b915061499a83614a86565b9250817fffffffffffffffffffffffffffffffffffffffffffffffffffffffffffffffff04831182151516156149d3576149d2614bc6565b5b828202905092915050565b60006149e982614a86565b91506149f483614a86565b925082821015614a0757614a06614bc6565b5b828203905092915050565b6000614a1d82614a66565b9050919050565b60008115159050919050565b6000819050919050565b60007fffffffff0000000000000000000000000000000000000000000000000000000082169050919050565b600073ffffffffffffffffffffffffffffffffffffffff82169050919050565b6000819050919050565b600060ff82169050919050565b82818337600083830152505050565b60005b83811015614aca578082015181840152602081019050614aaf565b83811115614ad9576000848401525b50505050565b60006002820490506001821680614af757607f821691505b60208210811415614b0b57614b0a614c24565b5b50919050565b614b1a82614c82565b810181811067ffffffffffffffff82111715614b3957614b38614c53565b5b80604052505050565b6000614b4d82614a86565b91507fffffffffffffffffffffffffffffffffffffffffffffffffffffffffffffffff821415614b8057614b7f614bc6565b5b600182019050919050565b6000819050919050565b6000614ba082614a86565b9150614bab83614a86565b925082614bbb57614bba614bf5565b5b828206905092915050565b7f4e487b7100000000000000000000000000000000000000000000000000000000600052601160045260246000fd5b7f4e487b7100000000000000000000000000000000000000000000000000000000600052601260045260246000fd5b7f4e487b7100000000000000000000000000000000000000000000000000000000600052602260045260246000fd5b7f4e487b7100000000000000000000000000000000000000000000000000000000600052604160045260246000fd5b6000601f19601f8301169050919050565b7f45434453413a20696e76616c6964207369676e61747572650000000000000000600082015250565b7f45434453413a20696e76616c6964207369676e6174757265206c656e67746800600082015250565b7f19457468657265756d205369676e6564204d6573736167653a0a333200000000600082015250565b7f596f75206861766520746f206d696e74206174206c656173742031204e465400600082015250565b7f455243373231456e756d657261626c653a206f776e657220696e646578206f7560008201527f74206f6620626f756e6473000000000000000000000000000000000000000000602082015250565b7f43616e6e6f74206d696e7420737065636966696564206e756d626572206f662060008201527f4e46547300000000000000000000000000000000000000000000000000000000602082015250565b7f4e6f7420656e6f75676820657468657220746f207075726368617365204e465460008201527f7300000000000000000000000000000000000000000000000000000000000000602082015250565b7f4552433732313a207472616e7366657220746f206e6f6e20455243373231526560008201527f63656976657220696d706c656d656e7465720000000000000000000000000000602082015250565b7f4e6f7420656e6f756768204e46547320746f206d696e742e0000000000000000600082015250565b7f4f776e61626c653a206e6577206f776e657220697320746865207a65726f206160008201527f6464726573730000000000000000000000000000000000000000000000000000602082015250565b7f4552433732313a207472616e736665722066726f6d20696e636f72726563742060008201527f6f776e6572000000000000000000000000000000000000000000000000000000602082015250565b7f4552433732313a20746f6b656e20616c7265616479206d696e74656400000000600082015250565b7f4552433732313a207472616e7366657220746f20746865207a65726f2061646460008201527f7265737300000000000000000000000000000000000000000000000000000000602082015250565b7f4552433732313a20617070726f766520746f2063616c6c657200000000000000600082015250565b7f4e6f20657468657220746f207769746864726177000000000000000000000000600082015250565b7f45434453413a20696e76616c6964207369676e6174757265202773272076616c60008201527f7565000000000000000000000000000000000000000000000000000000000000602082015250565b7f4e6f7420656e6f75676820657468657220746f207075726368617365204e465460008201527f732e000000000000000000000000000000000000000000000000000000000000602082015250565b7f43616e6e6f74206d696e7420737065636966696564206e756d626572206f662060008201527f4e4654732e000000000000000000000000000000000000000000000000000000602082015250565b7f4552433732313a206f70657261746f7220717565727920666f72206e6f6e657860008201527f697374656e7420746f6b656e0000000000000000000000000000000000000000602082015250565b7f4552433732313a20617070726f76652063616c6c6572206973206e6f74206f7760008201527f6e6572206e6f7220617070726f76656420666f7220616c6c0000000000000000602082015250565b7f4552433732313a2062616c616e636520717565727920666f7220746865207a6560008201527f726f206164647265737300000000000000000000000000000000000000000000602082015250565b7f4552433732313a206f776e657220717565727920666f72206e6f6e657869737460008201527f656e7420746f6b656e0000000000000000000000000000000000000000000000602082015250565b7f45434453413a20696e76616c6964207369676e6174757265202776272076616c60008201527f7565000000000000000000000000000000000000000000000000000000000000602082015250565b7f4552433732313a206d696e7420746f20746865207a65726f2061646472657373600082015250565b7f4e6f7420656e6f756768204e46547320746f206d696e74000000000000000000600082015250565b7f4552433732313a20617070726f76656420717565727920666f72206e6f6e657860008201527f697374656e7420746f6b656e0000000000000000000000000000000000000000602082015250565b7f4f776e61626c653a2063616c6c6572206973206e6f7420746865206f776e6572600082015250565b7f4552433732314d657461646174613a2055524920717565727920666f72206e6f60008201527f6e6578697374656e7420746f6b656e0000000000000000000000000000000000602082015250565b7f4552433732313a20617070726f76616c20746f2063757272656e74206f776e6560008201527f7200000000000000000000000000000000000000000000000000000000000000602082015250565b7f41646472657373206973206e6f742077686974656c69737465642e0000000000600082015250565b50565b7f5472616e73666572206661696c65642e00000000000000000000000000000000600082015250565b7f4552433732313a207472616e736665722063616c6c6572206973206e6f74206f60008201527f776e6572206e6f7220617070726f766564000000000000000000000000000000602082015250565b7f596f752063616e6e6f74206d696e74207269676874206e6f772e000000000000600082015250565b7f455243373231456e756d657261626c653a20676c6f62616c20696e646578206f60008201527f7574206f6620626f756e64730000000000000000000000000000000000000000602082015250565b7f50726573616c65206973206e6f74206163746976652e00000000000000000000600082015250565b61553281614a12565b811461553d57600080fd5b50565b61554981614a24565b811461555457600080fd5b50565b61556081614a30565b811461556b57600080fd5b50565b61557781614a3a565b811461558257600080fd5b50565b61558e81614a86565b811461559957600080fd5b5056fea2646970667358221220d9e6477f44f203c5fd9c6d98d0af1706c0b3ff47cb423efdf8493b35f51338f964736f6c63430008040033",
  "linkReferences": {},
  "deployedLinkReferences": {}
}