{
  "_format": "hh-sol-artifact-1",
  "contractName": "UnicornNodeClub",
  "sourceName": "contracts/UnicornNodeClub.sol",
  "abi": [
    {
      "inputs": [
        {
          "internalType": "string",
          "name": "baseURI",
          "type": "string"
        }
      ],
      "stateMutability": "nonpayable",
      "type": "constructor"
    },
    {
      "anonymous": false,
      "inputs": [
        {
          "indexed": true,
          "internalType": "address",
          "name": "owner",
          "type": "address"
        },
        {
          "indexed": true,
          "internalType": "address",
          "name": "approved",
          "type": "address"
        },
        {
          "indexed": true,
          "internalType": "uint256",
          "name": "tokenId",
          "type": "uint256"
        }
      ],
      "name": "Approval",
      "type": "event"
    },
    {
      "anonymous": false,
      "inputs": [
        {
          "indexed": true,
          "internalType": "address",
          "name": "owner",
          "type": "address"
        },
        {
          "indexed": true,
          "internalType": "address",
          "name": "operator",
          "type": "address"
        },
        {
          "indexed": false,
          "internalType": "bool",
          "name": "approved",
          "type": "bool"
        }
      ],
      "name": "ApprovalForAll",
      "type": "event"
    },
    {
      "anonymous": false,
      "inputs": [
        {
          "indexed": true,
          "internalType": "address",
          "name": "previousOwner",
          "type": "address"
        },
        {
          "indexed": true,
          "internalType": "address",
          "name": "newOwner",
          "type": "address"
        }
      ],
      "name": "OwnershipTransferred",
      "type": "event"
    },
    {
      "anonymous": false,
      "inputs": [
        {
          "indexed": true,
          "internalType": "address",
          "name": "from",
          "type": "address"
        },
        {
          "indexed": true,
          "internalType": "address",
          "name": "to",
          "type": "address"
        },
        {
          "indexed": true,
          "internalType": "uint256",
          "name": "tokenId",
          "type": "uint256"
        }
      ],
      "name": "Transfer",
      "type": "event"
    },
    {
      "inputs": [
        {
          "internalType": "address",
          "name": "to",
          "type": "address"
        },
        {
          "internalType": "uint256",
          "name": "tokenId",
          "type": "uint256"
        }
      ],
      "name": "approve",
      "outputs": [],
      "stateMutability": "nonpayable",
      "type": "function"
    },
    {
      "inputs": [
        {
          "internalType": "address",
          "name": "owner",
          "type": "address"
        }
      ],
      "name": "balanceOf",
      "outputs": [
        {
          "internalType": "uint256",
          "name": "",
          "type": "uint256"
        }
      ],
      "stateMutability": "view",
      "type": "function"
    },
    {
      "inputs": [],
      "name": "baseTokenURI",
      "outputs": [
        {
          "internalType": "string",
          "name": "",
          "type": "string"
        }
      ],
      "stateMutability": "view",
      "type": "function"
    },
    {
      "inputs": [
        {
          "internalType": "uint256",
          "name": "_count",
          "type": "uint256"
        }
      ],
      "name": "devMint",
      "outputs": [],
      "stateMutability": "nonpayable",
      "type": "function"
    },
    {
      "inputs": [
        {
          "internalType": "uint256",
          "name": "tokenId",
          "type": "uint256"
        }
      ],
      "name": "getApproved",
      "outputs": [
        {
          "internalType": "address",
          "name": "",
          "type": "address"
        }
      ],
      "stateMutability": "view",
      "type": "function"
    },
    {
      "inputs": [],
      "name": "getSupply",
      "outputs": [
        {
          "internalType": "uint256",
          "name": "",
          "type": "uint256"
        }
      ],
      "stateMutability": "view",
      "type": "function"
    },
    {
      "inputs": [
        {
          "internalType": "address",
          "name": "owner",
          "type": "address"
        },
        {
          "internalType": "address",
          "name": "operator",
          "type": "address"
        }
      ],
      "name": "isApprovedForAll",
      "outputs": [
        {
          "internalType": "bool",
          "name": "",
          "type": "bool"
        }
      ],
      "stateMutability": "view",
      "type": "function"
    },
    {
      "inputs": [],
      "name": "maxPerMint",
      "outputs": [
        {
          "internalType": "uint256",
          "name": "",
          "type": "uint256"
        }
      ],
      "stateMutability": "view",
      "type": "function"
    },
    {
      "inputs": [],
      "name": "maxSupply",
      "outputs": [
        {
          "internalType": "uint256",
          "name": "",
          "type": "uint256"
        }
      ],
      "stateMutability": "view",
      "type": "function"
    },
    {
      "inputs": [
        {
          "internalType": "uint256",
          "name": "_count",
          "type": "uint256"
        }
      ],
      "name": "mint",
      "outputs": [],
      "stateMutability": "payable",
      "type": "function"
    },
    {
      "inputs": [],
      "name": "name",
      "outputs": [
        {
          "internalType": "string",
          "name": "",
          "type": "string"
        }
      ],
      "stateMutability": "view",
      "type": "function"
    },
    {
      "inputs": [],
      "name": "owner",
      "outputs": [
        {
          "internalType": "address",
          "name": "",
          "type": "address"
        }
      ],
      "stateMutability": "view",
      "type": "function"
    },
    {
      "inputs": [
        {
          "internalType": "uint256",
          "name": "tokenId",
          "type": "uint256"
        }
      ],
      "name": "ownerOf",
      "outputs": [
        {
          "internalType": "address",
          "name": "",
          "type": "address"
        }
      ],
      "stateMutability": "view",
      "type": "function"
    },
    {
      "inputs": [],
      "name": "pause",
      "outputs": [],
      "stateMutability": "nonpayable",
      "type": "function"
    },
    {
      "inputs": [
        {
          "internalType": "uint256",
          "name": "_count",
          "type": "uint256"
        },
        {
          "internalType": "bytes32",
          "name": "hash",
          "type": "bytes32"
        },
        {
          "internalType": "bytes",
          "name": "signature",
          "type": "bytes"
        }
      ],
      "name": "preSaleMint",
      "outputs": [],
      "stateMutability": "payable",
      "type": "function"
    },
    {
      "inputs": [],
      "name": "price",
      "outputs": [
        {
          "internalType": "uint256",
          "name": "",
          "type": "uint256"
        }
      ],
      "stateMutability": "view",
      "type": "function"
    },
    {
      "inputs": [
        {
          "internalType": "bytes32",
          "name": "hash",
          "type": "bytes32"
        },
        {
          "internalType": "bytes",
          "name": "signature",
          "type": "bytes"
        }
      ],
      "name": "recoverSigner",
      "outputs": [
        {
          "internalType": "address",
          "name": "",
          "type": "address"
        }
      ],
      "stateMutability": "pure",
      "type": "function"
    },
    {
      "inputs": [],
      "name": "renounceOwnership",
      "outputs": [],
      "stateMutability": "nonpayable",
      "type": "function"
    },
    {
      "inputs": [
        {
          "internalType": "address",
          "name": "from",
          "type": "address"
        },
        {
          "internalType": "address",
          "name": "to",
          "type": "address"
        },
        {
          "internalType": "uint256",
          "name": "tokenId",
          "type": "uint256"
        }
      ],
      "name": "safeTransferFrom",
      "outputs": [],
      "stateMutability": "nonpayable",
      "type": "function"
    },
    {
      "inputs": [
        {
          "internalType": "address",
          "name": "from",
          "type": "address"
        },
        {
          "internalType": "address",
          "name": "to",
          "type": "address"
        },
        {
          "internalType": "uint256",
          "name": "tokenId",
          "type": "uint256"
        },
        {
          "internalType": "bytes",
          "name": "_data",
          "type": "bytes"
        }
      ],
      "name": "safeTransferFrom",
      "outputs": [],
      "stateMutability": "nonpayable",
      "type": "function"
    },
    {
      "inputs": [
        {
          "internalType": "address",
          "name": "operator",
          "type": "address"
        },
        {
          "internalType": "bool",
          "name": "approved",
          "type": "bool"
        }
      ],
      "name": "setApprovalForAll",
      "outputs": [],
      "stateMutability": "nonpayable",
      "type": "function"
    },
    {
      "inputs": [
        {
          "internalType": "string",
          "name": "_baseTokenURI",
          "type": "string"
        }
      ],
      "name": "setBaseURI",
      "outputs": [],
      "stateMutability": "nonpayable",
      "type": "function"
    },
    {
      "inputs": [
        {
          "internalType": "uint256",
          "name": "_price",
          "type": "uint256"
        }
      ],
      "name": "setPrice",
      "outputs": [],
      "stateMutability": "nonpayable",
      "type": "function"
    },
    {
      "inputs": [
        {
          "internalType": "bool",
          "name": "_publicMint",
          "type": "bool"
        }
      ],
      "name": "setPublicMint",
      "outputs": [],
      "stateMutability": "nonpayable",
      "type": "function"
    },
    {
      "inputs": [
        {
          "internalType": "bool",
          "name": "_whitelistMint",
          "type": "bool"
        }
      ],
      "name": "setWhitelistMint",
      "outputs": [],
      "stateMutability": "nonpayable",
      "type": "function"
    },
    {
      "inputs": [
        {
          "internalType": "bytes4",
          "name": "interfaceId",
          "type": "bytes4"
        }
      ],
      "name": "supportsInterface",
      "outputs": [
        {
          "internalType": "bool",
          "name": "",
          "type": "bool"
        }
      ],
      "stateMutability": "view",
      "type": "function"
    },
    {
      "inputs": [],
      "name": "symbol",
      "outputs": [
        {
          "internalType": "string",
          "name": "",
          "type": "string"
        }
      ],
      "stateMutability": "view",
      "type": "function"
    },
    {
      "inputs": [
        {
          "internalType": "uint256",
          "name": "index",
          "type": "uint256"
        }
      ],
      "name": "tokenByIndex",
      "outputs": [
        {
          "internalType": "uint256",
          "name": "",
          "type": "uint256"
        }
      ],
      "stateMutability": "view",
      "type": "function"
    },
    {
      "inputs": [
        {
          "internalType": "address",
          "name": "owner",
          "type": "address"
        },
        {
          "internalType": "uint256",
          "name": "index",
          "type": "uint256"
        }
      ],
      "name": "tokenOfOwnerByIndex",
      "outputs": [
        {
          "internalType": "uint256",
          "name": "",
          "type": "uint256"
        }
      ],
      "stateMutability": "view",
      "type": "function"
    },
    {
      "inputs": [
        {
          "internalType": "uint256",
          "name": "tokenId",
          "type": "uint256"
        }
      ],
      "name": "tokenURI",
      "outputs": [
        {
          "internalType": "string",
          "name": "",
          "type": "string"
        }
      ],
      "stateMutability": "view",
      "type": "function"
    },
    {
      "inputs": [
        {
          "internalType": "address",
          "name": "_owner",
          "type": "address"
        }
      ],
      "name": "tokensOfOwner",
      "outputs": [
        {
          "internalType": "uint256[]",
          "name": "",
          "type": "uint256[]"
        }
      ],
      "stateMutability": "view",
      "type": "function"
    },
    {
      "inputs": [],
      "name": "totalSupply",
      "outputs": [
        {
          "internalType": "uint256",
          "name": "",
          "type": "uint256"
        }
      ],
      "stateMutability": "view",
      "type": "function"
    },
    {
      "inputs": [
        {
          "internalType": "address",
          "name": "from",
          "type": "address"
        },
        {
          "internalType": "address",
          "name": "to",
          "type": "address"
        },
        {
          "internalType": "uint256",
          "name": "tokenId",
          "type": "uint256"
        }
      ],
      "name": "transferFrom",
      "outputs": [],
      "stateMutability": "nonpayable",
      "type": "function"
    },
    {
      "inputs": [
        {
          "internalType": "address",
          "name": "newOwner",
          "type": "address"
        }
      ],
      "name": "transferOwnership",
      "outputs": [],
      "stateMutability": "nonpayable",
      "type": "function"
    },
    {
      "inputs": [],
      "name": "withdraw",
      "outputs": [],
      "stateMutability": "payable",
      "type": "function"
    }
  ],
  "bytecode": "0x6080604052611388600c5566b1a2bc2ec50000600d55600a600e556000601060006101000a81548160ff0219169083151502179055506000601060016101000a81548160ff0219169083151502179055503480156200005d57600080fd5b5060405162005c7138038062005c71833981810160405281019062000083919062000420565b6040518060400160405280601181526020017f556e69636f726e204e6f646520436c75620000000000000000000000000000008152506040518060400160405280600581526020017f434f524e53000000000000000000000000000000000000000000000000000000815250816000908051906020019062000107929190620002fe565b50806001908051906020019062000120929190620002fe565b50505062000143620001376200015b60201b60201c565b6200016360201b60201c565b62000154816200022960201b60201c565b5062000658565b600033905090565b6000600a60009054906101000a900473ffffffffffffffffffffffffffffffffffffffff16905081600a60006101000a81548173ffffffffffffffffffffffffffffffffffffffff021916908373ffffffffffffffffffffffffffffffffffffffff1602179055508173ffffffffffffffffffffffffffffffffffffffff168173ffffffffffffffffffffffffffffffffffffffff167f8be0079c531659141344cd1fd0a4f28419497f9722a3daafe3b4186f6b6457e060405160405180910390a35050565b620002396200015b60201b60201c565b73ffffffffffffffffffffffffffffffffffffffff166200025f620002d460201b60201c565b73ffffffffffffffffffffffffffffffffffffffff1614620002b8576040517f08c379a0000000000000000000000000000000000000000000000000000000008152600401620002af906200048c565b60405180910390fd5b80600f9080519060200190620002d0929190620002fe565b5050565b6000600a60009054906101000a900473ffffffffffffffffffffffffffffffffffffffff16905090565b8280546200030c9062000554565b90600052602060002090601f0160209004810192826200033057600085556200037c565b82601f106200034b57805160ff19168380011785556200037c565b828001600101855582156200037c579182015b828111156200037b5782518255916020019190600101906200035e565b5b5090506200038b91906200038f565b5090565b5b80821115620003aa57600081600090555060010162000390565b5090565b6000620003c5620003bf84620004d7565b620004ae565b905082815260208101848484011115620003de57600080fd5b620003eb8482856200051e565b509392505050565b600082601f8301126200040557600080fd5b815162000417848260208601620003ae565b91505092915050565b6000602082840312156200043357600080fd5b600082015167ffffffffffffffff8111156200044e57600080fd5b6200045c84828501620003f3565b91505092915050565b6000620004746020836200050d565b915062000481826200062f565b602082019050919050565b60006020820190508181036000830152620004a78162000465565b9050919050565b6000620004ba620004cd565b9050620004c882826200058a565b919050565b6000604051905090565b600067ffffffffffffffff821115620004f557620004f4620005ef565b5b62000500826200061e565b9050602081019050919050565b600082825260208201905092915050565b60005b838110156200053e57808201518184015260208101905062000521565b838111156200054e576000848401525b50505050565b600060028204905060018216806200056d57607f821691505b60208210811415620005845762000583620005c0565b5b50919050565b62000595826200061e565b810181811067ffffffffffffffff82111715620005b757620005b6620005ef565b5b80604052505050565b7f4e487b7100000000000000000000000000000000000000000000000000000000600052602260045260246000fd5b7f4e487b7100000000000000000000000000000000000000000000000000000000600052604160045260246000fd5b6000601f19601f8301169050919050565b7f4f776e61626c653a2063616c6c6572206973206e6f7420746865206f776e6572600082015250565b61560980620006686000396000f3fe6080604052600436106102045760003560e01c80636c9c2faf11610118578063a035b1fe116100a0578063c87b56dd1161006f578063c87b56dd14610728578063d547cfb714610765578063d5abeb0114610790578063e985e9c5146107bb578063f2fde38b146107f857610204565b8063a035b1fe1461068f578063a0712d68146106ba578063a22cb465146106d6578063b88d4fde146106ff57610204565b80638462151c116100e75780638462151c146105965780638da5cb5b146105d357806391b7f5ed146105fe57806395d89b411461062757806397aba7f91461065257610204565b80636c9c2faf1461050057806370a082311461052b578063715018a6146105685780638456cb591461057f57610204565b80632f745c591161019b5780634f6ccce71161016a5780634f6ccce714610409578063507e094f1461044657806355f804b3146104715780635d56d55e1461049a5780636352211e146104c357610204565b80632f745c5914610370578063375a069a146103ad5780633ccfd60b146103d657806342842e0e146103e057610204565b80630e2d56cf116101d75780630e2d56cf146102d757806310bcf49b1461030057806318160ddd1461031c57806323b872dd1461034757610204565b806301ffc9a71461020957806306fdde0314610246578063081812fc14610271578063095ea7b3146102ae575b600080fd5b34801561021557600080fd5b50610230600480360381019061022b9190613ac8565b610821565b60405161023d9190614349565b60405180910390f35b34801561025257600080fd5b5061025b61089b565b60405161026891906143a9565b60405180910390f35b34801561027d57600080fd5b5061029860048036038101906102939190613b5b565b61092d565b6040516102a591906142c0565b60405180910390f35b3480156102ba57600080fd5b506102d560048036038101906102d09190613a0f565b6109b2565b005b3480156102e357600080fd5b506102fe60048036038101906102f99190613a4b565b610aca565b005b61031a60048036038101906103159190613b84565b610b63565b005b34801561032857600080fd5b50610331610d69565b60405161033e919061480b565b60405180910390f35b34801561035357600080fd5b5061036e60048036038101906103699190613909565b610d76565b005b34801561037c57600080fd5b5061039760048036038101906103929190613a0f565b610dd6565b6040516103a4919061480b565b60405180910390f35b3480156103b957600080fd5b506103d460048036038101906103cf9190613b5b565b610e7b565b005b6103de610fc9565b005b3480156103ec57600080fd5b5061040760048036038101906104029190613909565b61113d565b005b34801561041557600080fd5b50610430600480360381019061042b9190613b5b565b61115d565b60405161043d919061480b565b60405180910390f35b34801561045257600080fd5b5061045b6111f4565b604051610468919061480b565b60405180910390f35b34801561047d57600080fd5b5061049860048036038101906104939190613b1a565b6111fa565b005b3480156104a657600080fd5b506104c160048036038101906104bc9190613a4b565b611290565b005b3480156104cf57600080fd5b506104ea60048036038101906104e59190613b5b565b611329565b6040516104f791906142c0565b60405180910390f35b34801561050c57600080fd5b506105156113db565b604051610522919061480b565b60405180910390f35b34801561053757600080fd5b50610552600480360381019061054d91906138a4565b61146e565b60405161055f919061480b565b60405180910390f35b34801561057457600080fd5b5061057d611526565b005b34801561058b57600080fd5b506105946115ae565b005b3480156105a257600080fd5b506105bd60048036038101906105b891906138a4565b611662565b6040516105ca9190614327565b60405180910390f35b3480156105df57600080fd5b506105e861175c565b6040516105f591906142c0565b60405180910390f35b34801561060a57600080fd5b5061062560048036038101906106209190613b5b565b611786565b005b34801561063357600080fd5b5061063c61180c565b60405161064991906143a9565b60405180910390f35b34801561065e57600080fd5b5061067960048036038101906106749190613a74565b61189e565b60405161068691906142c0565b60405180910390f35b34801561069b57600080fd5b506106a46118dd565b6040516106b1919061480b565b60405180910390f35b6106d460048036038101906106cf9190613b5b565b6118e3565b005b3480156106e257600080fd5b506106fd60048036038101906106f891906139d3565b611a69565b005b34801561070b57600080fd5b5061072660048036038101906107219190613958565b611a7f565b005b34801561073457600080fd5b5061074f600480360381019061074a9190613b5b565b611ae1565b60405161075c91906143a9565b60405180910390f35b34801561077157600080fd5b5061077a611b88565b60405161078791906143a9565b60405180910390f35b34801561079c57600080fd5b506107a5611c16565b6040516107b2919061480b565b60405180910390f35b3480156107c757600080fd5b506107e260048036038101906107dd91906138cd565b611c1c565b6040516107ef9190614349565b60405180910390f35b34801561080457600080fd5b5061081f600480360381019061081a91906138a4565b611cb0565b005b60007f780e9d63000000000000000000000000000000000000000000000000000000007bffffffffffffffffffffffffffffffffffffffffffffffffffffffff1916827bffffffffffffffffffffffffffffffffffffffffffffffffffffffff19161480610894575061089382611da8565b5b9050919050565b6060600080546108aa90614b16565b80601f01602080910402602001604051908101604052809291908181526020018280546108d690614b16565b80156109235780601f106108f857610100808354040283529160200191610923565b820191906000526020600020905b81548152906001019060200180831161090657829003601f168201915b5050505050905090565b600061093882611e8a565b610977576040517f08c379a000000000000000000000000000000000000000000000000000000000815260040161096e906146cb565b60405180910390fd5b6004600083815260200190815260200160002060009054906101000a900473ffffffffffffffffffffffffffffffffffffffff169050919050565b60006109bd82611329565b90508073ffffffffffffffffffffffffffffffffffffffff168373ffffffffffffffffffffffffffffffffffffffff161415610a2e576040517f08c379a0000000000000000000000000000000000000000000000000000000008152600401610a259061472b565b60405180910390fd5b8073ffffffffffffffffffffffffffffffffffffffff16610a4d611ef6565b73ffffffffffffffffffffffffffffffffffffffff161480610a7c5750610a7b81610a76611ef6565b611c1c565b5b610abb576040517f08c379a0000000000000000000000000000000000000000000000000000000008152600401610ab29061460b565b60405180910390fd5b610ac58383611efe565b505050565b610ad2611ef6565b73ffffffffffffffffffffffffffffffffffffffff16610af061175c565b73ffffffffffffffffffffffffffffffffffffffff1614610b46576040517f08c379a0000000000000000000000000000000000000000000000000000000008152600401610b3d906146eb565b60405180910390fd5b80601060006101000a81548160ff02191690831515021790555050565b6000610b6f600b611fb7565b9050601060019054906101000a900460ff16610bc0576040517f08c379a0000000000000000000000000000000000000000000000000000000008152600401610bb7906147eb565b60405180910390fd5b600c54610bd68583611fc590919063ffffffff16565b10610c16576040517f08c379a0000000000000000000000000000000000000000000000000000000008152600401610c0d906146ab565b60405180910390fd5b600084118015610c285750600e548411155b610c67576040517f08c379a0000000000000000000000000000000000000000000000000000000008152600401610c5e9061444b565b60405180910390fd5b610c7c84600d54611fdb90919063ffffffff16565b341015610cbe576040517f08c379a0000000000000000000000000000000000000000000000000000000008152600401610cb59061446b565b60405180910390fd5b610cc661175c565b73ffffffffffffffffffffffffffffffffffffffff16610ce6848461189e565b73ffffffffffffffffffffffffffffffffffffffff1614610d3c576040517f08c379a0000000000000000000000000000000000000000000000000000000008152600401610d339061474b565b60405180910390fd5b60005b84811015610d6257610d4f611ff1565b8080610d5a90614b79565b915050610d3f565b5050505050565b6000600880549050905090565b610d87610d81611ef6565b82612016565b610dc6576040517f08c379a0000000000000000000000000000000000000000000000000000000008152600401610dbd9061478b565b60405180910390fd5b610dd18383836120f4565b505050565b6000610de18361146e565b8210610e22576040517f08c379a0000000000000000000000000000000000000000000000000000000008152600401610e199061442b565b60405180910390fd5b600660008473ffffffffffffffffffffffffffffffffffffffff1673ffffffffffffffffffffffffffffffffffffffff168152602001908152602001600020600083815260200190815260200160002054905092915050565b610e83611ef6565b73ffffffffffffffffffffffffffffffffffffffff16610ea161175c565b73ffffffffffffffffffffffffffffffffffffffff1614610ef7576040517f08c379a0000000000000000000000000000000000000000000000000000000008152600401610eee906146eb565b60405180910390fd5b6000610f03600b611fb7565b9050600c54610f1b8383611fc590919063ffffffff16565b10610f5b576040517f08c379a0000000000000000000000000000000000000000000000000000000008152600401610f52906146ab565b60405180910390fd5b60008211610f9e576040517f08c379a0000000000000000000000000000000000000000000000000000000008152600401610f959061440b565b60405180910390fd5b60005b82811015610fc457610fb1611ff1565b8080610fbc90614b79565b915050610fa1565b505050565b610fd1611ef6565b73ffffffffffffffffffffffffffffffffffffffff16610fef61175c565b73ffffffffffffffffffffffffffffffffffffffff1614611045576040517f08c379a000000000000000000000000000000000000000000000000000000000815260040161103c906146eb565b60405180910390fd5b60004790506000811161108d576040517f08c379a00000000000000000000000000000000000000000000000000000000081526004016110849061456b565b60405180910390fd5b60003373ffffffffffffffffffffffffffffffffffffffff16826040516110b3906142ab565b60006040518083038185875af1925050503d80600081146110f0576040519150601f19603f3d011682016040523d82523d6000602084013e6110f5565b606091505b5050905080611139576040517f08c379a00000000000000000000000000000000000000000000000000000000081526004016111309061476b565b60405180910390fd5b5050565b61115883838360405180602001604052806000815250611a7f565b505050565b6000611167610d69565b82106111a8576040517f08c379a000000000000000000000000000000000000000000000000000000000815260040161119f906147cb565b60405180910390fd5b600882815481106111e2577f4e487b7100000000000000000000000000000000000000000000000000000000600052603260045260246000fd5b90600052602060002001549050919050565b600e5481565b611202611ef6565b73ffffffffffffffffffffffffffffffffffffffff1661122061175c565b73ffffffffffffffffffffffffffffffffffffffff1614611276576040517f08c379a000000000000000000000000000000000000000000000000000000000815260040161126d906146eb565b60405180910390fd5b80600f908051906020019061128c9291906136b3565b5050565b611298611ef6565b73ffffffffffffffffffffffffffffffffffffffff166112b661175c565b73ffffffffffffffffffffffffffffffffffffffff161461130c576040517f08c379a0000000000000000000000000000000000000000000000000000000008152600401611303906146eb565b60405180910390fd5b80601060016101000a81548160ff02191690831515021790555050565b6000806002600084815260200190815260200160002060009054906101000a900473ffffffffffffffffffffffffffffffffffffffff169050600073ffffffffffffffffffffffffffffffffffffffff168173ffffffffffffffffffffffffffffffffffffffff1614156113d2576040517f08c379a00000000000000000000000000000000000000000000000000000000081526004016113c99061464b565b60405180910390fd5b80915050919050565b60006113e5611ef6565b73ffffffffffffffffffffffffffffffffffffffff1661140361175c565b73ffffffffffffffffffffffffffffffffffffffff1614611459576040517f08c379a0000000000000000000000000000000000000000000000000000000008152600401611450906146eb565b60405180910390fd5b6000611465600b611fb7565b90508091505090565b60008073ffffffffffffffffffffffffffffffffffffffff168273ffffffffffffffffffffffffffffffffffffffff1614156114df576040517f08c379a00000000000000000000000000000000000000000000000000000000081526004016114d69061462b565b60405180910390fd5b600360008373ffffffffffffffffffffffffffffffffffffffff1673ffffffffffffffffffffffffffffffffffffffff168152602001908152602001600020549050919050565b61152e611ef6565b73ffffffffffffffffffffffffffffffffffffffff1661154c61175c565b73ffffffffffffffffffffffffffffffffffffffff16146115a2576040517f08c379a0000000000000000000000000000000000000000000000000000000008152600401611599906146eb565b60405180910390fd5b6115ac600061235b565b565b6115b6611ef6565b73ffffffffffffffffffffffffffffffffffffffff166115d461175c565b73ffffffffffffffffffffffffffffffffffffffff161461162a576040517f08c379a0000000000000000000000000000000000000000000000000000000008152600401611621906146eb565b60405180910390fd5b6000601060016101000a81548160ff0219169083151502179055506000601060006101000a81548160ff021916908315150217905550565b6060600061166f8361146e565b905060008167ffffffffffffffff8111156116b3577f4e487b7100000000000000000000000000000000000000000000000000000000600052604160045260246000fd5b6040519080825280602002602001820160405280156116e15781602001602082028036833780820191505090505b50905060005b82811015611751576116f98582610dd6565b828281518110611732577f4e487b7100000000000000000000000000000000000000000000000000000000600052603260045260246000fd5b602002602001018181525050808061174990614b79565b9150506116e7565b508092505050919050565b6000600a60009054906101000a900473ffffffffffffffffffffffffffffffffffffffff16905090565b61178e611ef6565b73ffffffffffffffffffffffffffffffffffffffff166117ac61175c565b73ffffffffffffffffffffffffffffffffffffffff1614611802576040517f08c379a00000000000000000000000000000000000000000000000000000000081526004016117f9906146eb565b60405180910390fd5b80600d8190555050565b60606001805461181b90614b16565b80601f016020809104026020016040519081016040528092919081815260200182805461184790614b16565b80156118945780601f1061186957610100808354040283529160200191611894565b820191906000526020600020905b81548152906001019060200180831161187757829003601f168201915b5050505050905090565b600080836040516020016118b29190614285565b6040516020818303038152906040528051906020012090506118d48184612421565b91505092915050565b600d5481565b60006118ef600b611fb7565b9050601060009054906101000a900460ff16611940576040517f08c379a0000000000000000000000000000000000000000000000000000000008152600401611937906147ab565b60405180910390fd5b600c546119568383611fc590919063ffffffff16565b10611996576040517f08c379a000000000000000000000000000000000000000000000000000000000815260040161198d906144ab565b60405180910390fd5b6000821180156119a85750600e548211155b6119e7576040517f08c379a00000000000000000000000000000000000000000000000000000000081526004016119de906145cb565b60405180910390fd5b6119fc82600d54611fdb90919063ffffffff16565b341015611a3e576040517f08c379a0000000000000000000000000000000000000000000000000000000008152600401611a35906145ab565b60405180910390fd5b60005b82811015611a6457611a51611ff1565b8080611a5c90614b79565b915050611a41565b505050565b611a7b611a74611ef6565b8383612448565b5050565b611a90611a8a611ef6565b83612016565b611acf576040517f08c379a0000000000000000000000000000000000000000000000000000000008152600401611ac69061478b565b60405180910390fd5b611adb848484846125b5565b50505050565b6060611aec82611e8a565b611b2b576040517f08c379a0000000000000000000000000000000000000000000000000000000008152600401611b229061470b565b60405180910390fd5b6000611b35612611565b90506000815111611b555760405180602001604052806000815250611b80565b80611b5f846126a3565b604051602001611b70929190614261565b6040516020818303038152906040525b915050919050565b600f8054611b9590614b16565b80601f0160208091040260200160405190810160405280929190818152602001828054611bc190614b16565b8015611c0e5780601f10611be357610100808354040283529160200191611c0e565b820191906000526020600020905b815481529060010190602001808311611bf157829003601f168201915b505050505081565b600c5481565b6000600560008473ffffffffffffffffffffffffffffffffffffffff1673ffffffffffffffffffffffffffffffffffffffff16815260200190815260200160002060008373ffffffffffffffffffffffffffffffffffffffff1673ffffffffffffffffffffffffffffffffffffffff16815260200190815260200160002060009054906101000a900460ff16905092915050565b611cb8611ef6565b73ffffffffffffffffffffffffffffffffffffffff16611cd661175c565b73ffffffffffffffffffffffffffffffffffffffff1614611d2c576040517f08c379a0000000000000000000000000000000000000000000000000000000008152600401611d23906146eb565b60405180910390fd5b600073ffffffffffffffffffffffffffffffffffffffff168173ffffffffffffffffffffffffffffffffffffffff161415611d9c576040517f08c379a0000000000000000000000000000000000000000000000000000000008152600401611d93906144cb565b60405180910390fd5b611da58161235b565b50565b60007f80ac58cd000000000000000000000000000000000000000000000000000000007bffffffffffffffffffffffffffffffffffffffffffffffffffffffff1916827bffffffffffffffffffffffffffffffffffffffffffffffffffffffff19161480611e7357507f5b5e139f000000000000000000000000000000000000000000000000000000007bffffffffffffffffffffffffffffffffffffffffffffffffffffffff1916827bffffffffffffffffffffffffffffffffffffffffffffffffffffffff1916145b80611e835750611e8282612850565b5b9050919050565b60008073ffffffffffffffffffffffffffffffffffffffff166002600084815260200190815260200160002060009054906101000a900473ffffffffffffffffffffffffffffffffffffffff1673ffffffffffffffffffffffffffffffffffffffff1614159050919050565b600033905090565b816004600083815260200190815260200160002060006101000a81548173ffffffffffffffffffffffffffffffffffffffff021916908373ffffffffffffffffffffffffffffffffffffffff160217905550808273ffffffffffffffffffffffffffffffffffffffff16611f7183611329565b73ffffffffffffffffffffffffffffffffffffffff167f8c5be1e5ebec7d5bd14f71427d1e84f3dd0314c0f7b2291e5b200ac8c7c3b92560405160405180910390a45050565b600081600001549050919050565b60008183611fd39190614934565b905092915050565b60008183611fe991906149bb565b905092915050565b6000611ffd600b611fb7565b905061200933826128ba565b612013600b6128d8565b50565b600061202182611e8a565b612060576040517f08c379a0000000000000000000000000000000000000000000000000000000008152600401612057906145eb565b60405180910390fd5b600061206b83611329565b90508073ffffffffffffffffffffffffffffffffffffffff168473ffffffffffffffffffffffffffffffffffffffff1614806120da57508373ffffffffffffffffffffffffffffffffffffffff166120c28461092d565b73ffffffffffffffffffffffffffffffffffffffff16145b806120eb57506120ea8185611c1c565b5b91505092915050565b8273ffffffffffffffffffffffffffffffffffffffff1661211482611329565b73ffffffffffffffffffffffffffffffffffffffff161461216a576040517f08c379a0000000000000000000000000000000000000000000000000000000008152600401612161906144eb565b60405180910390fd5b600073ffffffffffffffffffffffffffffffffffffffff168273ffffffffffffffffffffffffffffffffffffffff1614156121da576040517f08c379a00000000000000000000000000000000000000000000000000000000081526004016121d19061452b565b60405180910390fd5b6121e58383836128ee565b6121f0600082611efe565b6001600360008573ffffffffffffffffffffffffffffffffffffffff1673ffffffffffffffffffffffffffffffffffffffff16815260200190815260200160002060008282546122409190614a15565b925050819055506001600360008473ffffffffffffffffffffffffffffffffffffffff1673ffffffffffffffffffffffffffffffffffffffff16815260200190815260200160002060008282546122979190614934565b92505081905550816002600083815260200190815260200160002060006101000a81548173ffffffffffffffffffffffffffffffffffffffff021916908373ffffffffffffffffffffffffffffffffffffffff160217905550808273ffffffffffffffffffffffffffffffffffffffff168473ffffffffffffffffffffffffffffffffffffffff167fddf252ad1be2c89b69c2b068fc378daa952ba7f163c4a11628f55a4df523b3ef60405160405180910390a4612356838383612a02565b505050565b6000600a60009054906101000a900473ffffffffffffffffffffffffffffffffffffffff16905081600a60006101000a81548173ffffffffffffffffffffffffffffffffffffffff021916908373ffffffffffffffffffffffffffffffffffffffff1602179055508173ffffffffffffffffffffffffffffffffffffffff168173ffffffffffffffffffffffffffffffffffffffff167f8be0079c531659141344cd1fd0a4f28419497f9722a3daafe3b4186f6b6457e060405160405180910390a35050565b60008060006124308585612a07565b9150915061243d81612a8a565b819250505092915050565b8173ffffffffffffffffffffffffffffffffffffffff168373ffffffffffffffffffffffffffffffffffffffff1614156124b7576040517f08c379a00000000000000000000000000000000000000000000000000000000081526004016124ae9061454b565b60405180910390fd5b80600560008573ffffffffffffffffffffffffffffffffffffffff1673ffffffffffffffffffffffffffffffffffffffff16815260200190815260200160002060008473ffffffffffffffffffffffffffffffffffffffff1673ffffffffffffffffffffffffffffffffffffffff16815260200190815260200160002060006101000a81548160ff0219169083151502179055508173ffffffffffffffffffffffffffffffffffffffff168373ffffffffffffffffffffffffffffffffffffffff167f17307eab39ab6107e8899845ad3d59bd9653f200f220920489ca2b5937696c31836040516125a89190614349565b60405180910390a3505050565b6125c08484846120f4565b6125cc84848484612ddb565b61260b576040517f08c379a00000000000000000000000000000000000000000000000000000000081526004016126029061448b565b60405180910390fd5b50505050565b6060600f805461262090614b16565b80601f016020809104026020016040519081016040528092919081815260200182805461264c90614b16565b80156126995780601f1061266e57610100808354040283529160200191612699565b820191906000526020600020905b81548152906001019060200180831161267c57829003601f168201915b5050505050905090565b606060008214156126eb576040518060400160405280600181526020017f3000000000000000000000000000000000000000000000000000000000000000815250905061284b565b600082905060005b6000821461271d57808061270690614b79565b915050600a82612716919061498a565b91506126f3565b60008167ffffffffffffffff81111561275f577f4e487b7100000000000000000000000000000000000000000000000000000000600052604160045260246000fd5b6040519080825280601f01601f1916602001820160405280156127915781602001600182028036833780820191505090505b5090505b60008514612844576001826127aa9190614a15565b9150600a856127b99190614bcc565b60306127c59190614934565b60f81b818381518110612801577f4e487b7100000000000000000000000000000000000000000000000000000000600052603260045260246000fd5b60200101907effffffffffffffffffffffffffffffffffffffffffffffffffffffffffffff1916908160001a905350600a8561283d919061498a565b9450612795565b8093505050505b919050565b60007f01ffc9a7000000000000000000000000000000000000000000000000000000007bffffffffffffffffffffffffffffffffffffffffffffffffffffffff1916827bffffffffffffffffffffffffffffffffffffffffffffffffffffffff1916149050919050565b6128d4828260405180602001604052806000815250612f72565b5050565b6001816000016000828254019250508190555050565b6128f9838383612fcd565b600073ffffffffffffffffffffffffffffffffffffffff168373ffffffffffffffffffffffffffffffffffffffff16141561293c5761293781612fd2565b61297b565b8173ffffffffffffffffffffffffffffffffffffffff168373ffffffffffffffffffffffffffffffffffffffff161461297a57612979838261301b565b5b5b600073ffffffffffffffffffffffffffffffffffffffff168273ffffffffffffffffffffffffffffffffffffffff1614156129be576129b981613188565b6129fd565b8273ffffffffffffffffffffffffffffffffffffffff168273ffffffffffffffffffffffffffffffffffffffff16146129fc576129fb82826132cb565b5b5b505050565b505050565b600080604183511415612a495760008060006020860151925060408601519150606086015160001a9050612a3d8782858561334a565b94509450505050612a83565b604083511415612a7a576000806020850151915060408501519050612a6f868383613457565b935093505050612a83565b60006002915091505b9250929050565b60006004811115612ac4577f4e487b7100000000000000000000000000000000000000000000000000000000600052602160045260246000fd5b816004811115612afd577f4e487b7100000000000000000000000000000000000000000000000000000000600052602160045260246000fd5b1415612b0857612dd8565b60016004811115612b42577f4e487b7100000000000000000000000000000000000000000000000000000000600052602160045260246000fd5b816004811115612b7b577f4e487b7100000000000000000000000000000000000000000000000000000000600052602160045260246000fd5b1415612bbc576040517f08c379a0000000000000000000000000000000000000000000000000000000008152600401612bb3906143cb565b60405180910390fd5b60026004811115612bf6577f4e487b7100000000000000000000000000000000000000000000000000000000600052602160045260246000fd5b816004811115612c2f577f4e487b7100000000000000000000000000000000000000000000000000000000600052602160045260246000fd5b1415612c70576040517f08c379a0000000000000000000000000000000000000000000000000000000008152600401612c67906143eb565b60405180910390fd5b60036004811115612caa577f4e487b7100000000000000000000000000000000000000000000000000000000600052602160045260246000fd5b816004811115612ce3577f4e487b7100000000000000000000000000000000000000000000000000000000600052602160045260246000fd5b1415612d24576040517f08c379a0000000000000000000000000000000000000000000000000000000008152600401612d1b9061458b565b60405180910390fd5b600480811115612d5d577f4e487b7100000000000000000000000000000000000000000000000000000000600052602160045260246000fd5b816004811115612d96577f4e487b7100000000000000000000000000000000000000000000000000000000600052602160045260246000fd5b1415612dd7576040517f08c379a0000000000000000000000000000000000000000000000000000000008152600401612dce9061466b565b60405180910390fd5b5b50565b6000612dfc8473ffffffffffffffffffffffffffffffffffffffff166134b6565b15612f65578373ffffffffffffffffffffffffffffffffffffffff1663150b7a02612e25611ef6565b8786866040518563ffffffff1660e01b8152600401612e4794939291906142db565b602060405180830381600087803b158015612e6157600080fd5b505af1925050508015612e9257506040513d601f19601f82011682018060405250810190612e8f9190613af1565b60015b612f15573d8060008114612ec2576040519150601f19603f3d011682016040523d82523d6000602084013e612ec7565b606091505b50600081511415612f0d576040517f08c379a0000000000000000000000000000000000000000000000000000000008152600401612f049061448b565b60405180910390fd5b805181602001fd5b63150b7a0260e01b7bffffffffffffffffffffffffffffffffffffffffffffffffffffffff1916817bffffffffffffffffffffffffffffffffffffffffffffffffffffffff191614915050612f6a565b600190505b949350505050565b612f7c83836134d9565b612f896000848484612ddb565b612fc8576040517f08c379a0000000000000000000000000000000000000000000000000000000008152600401612fbf9061448b565b60405180910390fd5b505050565b505050565b6008805490506009600083815260200190815260200160002081905550600881908060018154018082558091505060019003906000526020600020016000909190919091505550565b600060016130288461146e565b6130329190614a15565b9050600060076000848152602001908152602001600020549050818114613117576000600660008673ffffffffffffffffffffffffffffffffffffffff1673ffffffffffffffffffffffffffffffffffffffff168152602001908152602001600020600084815260200190815260200160002054905080600660008773ffffffffffffffffffffffffffffffffffffffff1673ffffffffffffffffffffffffffffffffffffffff168152602001908152602001600020600084815260200190815260200160002081905550816007600083815260200190815260200160002081905550505b6007600084815260200190815260200160002060009055600660008573ffffffffffffffffffffffffffffffffffffffff1673ffffffffffffffffffffffffffffffffffffffff16815260200190815260200160002060008381526020019081526020016000206000905550505050565b6000600160088054905061319c9190614a15565b90506000600960008481526020019081526020016000205490506000600883815481106131f2577f4e487b7100000000000000000000000000000000000000000000000000000000600052603260045260246000fd5b90600052602060002001549050806008838154811061323a577f4e487b7100000000000000000000000000000000000000000000000000000000600052603260045260246000fd5b9060005260206000200181905550816009600083815260200190815260200160002081905550600960008581526020019081526020016000206000905560088054806132af577f4e487b7100000000000000000000000000000000000000000000000000000000600052603160045260246000fd5b6001900381819060005260206000200160009055905550505050565b60006132d68361146e565b905081600660008573ffffffffffffffffffffffffffffffffffffffff1673ffffffffffffffffffffffffffffffffffffffff168152602001908152602001600020600083815260200190815260200160002081905550806007600084815260200190815260200160002081905550505050565b6000807f7fffffffffffffffffffffffffffffff5d576e7357a4501ddfe92f46681b20a08360001c111561338557600060039150915061344e565b601b8560ff161415801561339d5750601c8560ff1614155b156133af57600060049150915061344e565b6000600187878787604051600081526020016040526040516133d49493929190614364565b6020604051602081039080840390855afa1580156133f6573d6000803e3d6000fd5b505050602060405103519050600073ffffffffffffffffffffffffffffffffffffffff168173ffffffffffffffffffffffffffffffffffffffff1614156134455760006001925092505061344e565b80600092509250505b94509492505050565b60008060007f7fffffffffffffffffffffffffffffffffffffffffffffffffffffffffffffff60001b841690506000601b60ff8660001c901c61349a9190614934565b90506134a88782888561334a565b935093505050935093915050565b6000808273ffffffffffffffffffffffffffffffffffffffff163b119050919050565b600073ffffffffffffffffffffffffffffffffffffffff168273ffffffffffffffffffffffffffffffffffffffff161415613549576040517f08c379a00000000000000000000000000000000000000000000000000000000081526004016135409061468b565b60405180910390fd5b61355281611e8a565b15613592576040517f08c379a00000000000000000000000000000000000000000000000000000000081526004016135899061450b565b60405180910390fd5b61359e600083836128ee565b6001600360008473ffffffffffffffffffffffffffffffffffffffff1673ffffffffffffffffffffffffffffffffffffffff16815260200190815260200160002060008282546135ee9190614934565b92505081905550816002600083815260200190815260200160002060006101000a81548173ffffffffffffffffffffffffffffffffffffffff021916908373ffffffffffffffffffffffffffffffffffffffff160217905550808273ffffffffffffffffffffffffffffffffffffffff16600073ffffffffffffffffffffffffffffffffffffffff167fddf252ad1be2c89b69c2b068fc378daa952ba7f163c4a11628f55a4df523b3ef60405160405180910390a46136af60008383612a02565b5050565b8280546136bf90614b16565b90600052602060002090601f0160209004810192826136e15760008555613728565b82601f106136fa57805160ff1916838001178555613728565b82800160010185558215613728579182015b8281111561372757825182559160200191906001019061370c565b5b5090506137359190613739565b5090565b5b8082111561375257600081600090555060010161373a565b5090565b60006137696137648461484b565b614826565b90508281526020810184848401111561378157600080fd5b61378c848285614ad4565b509392505050565b60006137a76137a28461487c565b614826565b9050828152602081018484840111156137bf57600080fd5b6137ca848285614ad4565b509392505050565b6000813590506137e181615560565b92915050565b6000813590506137f681615577565b92915050565b60008135905061380b8161558e565b92915050565b600081359050613820816155a5565b92915050565b600081519050613835816155a5565b92915050565b600082601f83011261384c57600080fd5b813561385c848260208601613756565b91505092915050565b600082601f83011261387657600080fd5b8135613886848260208601613794565b91505092915050565b60008135905061389e816155bc565b92915050565b6000602082840312156138b657600080fd5b60006138c4848285016137d2565b91505092915050565b600080604083850312156138e057600080fd5b60006138ee858286016137d2565b92505060206138ff858286016137d2565b9150509250929050565b60008060006060848603121561391e57600080fd5b600061392c868287016137d2565b935050602061393d868287016137d2565b925050604061394e8682870161388f565b9150509250925092565b6000806000806080858703121561396e57600080fd5b600061397c878288016137d2565b945050602061398d878288016137d2565b935050604061399e8782880161388f565b925050606085013567ffffffffffffffff8111156139bb57600080fd5b6139c78782880161383b565b91505092959194509250565b600080604083850312156139e657600080fd5b60006139f4858286016137d2565b9250506020613a05858286016137e7565b9150509250929050565b60008060408385031215613a2257600080fd5b6000613a30858286016137d2565b9250506020613a418582860161388f565b9150509250929050565b600060208284031215613a5d57600080fd5b6000613a6b848285016137e7565b91505092915050565b60008060408385031215613a8757600080fd5b6000613a95858286016137fc565b925050602083013567ffffffffffffffff811115613ab257600080fd5b613abe8582860161383b565b9150509250929050565b600060208284031215613ada57600080fd5b6000613ae884828501613811565b91505092915050565b600060208284031215613b0357600080fd5b6000613b1184828501613826565b91505092915050565b600060208284031215613b2c57600080fd5b600082013567ffffffffffffffff811115613b4657600080fd5b613b5284828501613865565b91505092915050565b600060208284031215613b6d57600080fd5b6000613b7b8482850161388f565b91505092915050565b600080600060608486031215613b9957600080fd5b6000613ba78682870161388f565b9350506020613bb8868287016137fc565b925050604084013567ffffffffffffffff811115613bd557600080fd5b613be18682870161383b565b9150509250925092565b6000613bf78383614234565b60208301905092915050565b613c0c81614a49565b82525050565b6000613c1d826148bd565b613c2781856148eb565b9350613c32836148ad565b8060005b83811015613c63578151613c4a8882613beb565b9750613c55836148de565b925050600181019050613c36565b5085935050505092915050565b613c7981614a5b565b82525050565b613c8881614a67565b82525050565b613c9f613c9a82614a67565b614bc2565b82525050565b6000613cb0826148c8565b613cba81856148fc565b9350613cca818560208601614ae3565b613cd381614cb9565b840191505092915050565b6000613ce9826148d3565b613cf38185614918565b9350613d03818560208601614ae3565b613d0c81614cb9565b840191505092915050565b6000613d22826148d3565b613d2c8185614929565b9350613d3c818560208601614ae3565b80840191505092915050565b6000613d55601883614918565b9150613d6082614cca565b602082019050919050565b6000613d78601f83614918565b9150613d8382614cf3565b602082019050919050565b6000613d9b601c83614929565b9150613da682614d1c565b601c82019050919050565b6000613dbe601f83614918565b9150613dc982614d45565b602082019050919050565b6000613de1602b83614918565b9150613dec82614d6e565b604082019050919050565b6000613e04602483614918565b9150613e0f82614dbd565b604082019050919050565b6000613e27602183614918565b9150613e3282614e0c565b604082019050919050565b6000613e4a603283614918565b9150613e5582614e5b565b604082019050919050565b6000613e6d601883614918565b9150613e7882614eaa565b602082019050919050565b6000613e90602683614918565b9150613e9b82614ed3565b604082019050919050565b6000613eb3602583614918565b9150613ebe82614f22565b604082019050919050565b6000613ed6601c83614918565b9150613ee182614f71565b602082019050919050565b6000613ef9602483614918565b9150613f0482614f9a565b604082019050919050565b6000613f1c601983614918565b9150613f2782614fe9565b602082019050919050565b6000613f3f601483614918565b9150613f4a82615012565b602082019050919050565b6000613f62602283614918565b9150613f6d8261503b565b604082019050919050565b6000613f85602283614918565b9150613f908261508a565b604082019050919050565b6000613fa8602583614918565b9150613fb3826150d9565b604082019050919050565b6000613fcb602c83614918565b9150613fd682615128565b604082019050919050565b6000613fee603883614918565b9150613ff982615177565b604082019050919050565b6000614011602a83614918565b915061401c826151c6565b604082019050919050565b6000614034602983614918565b915061403f82615215565b604082019050919050565b6000614057602283614918565b915061406282615264565b604082019050919050565b600061407a602083614918565b9150614085826152b3565b602082019050919050565b600061409d601783614918565b91506140a8826152dc565b602082019050919050565b60006140c0602c83614918565b91506140cb82615305565b604082019050919050565b60006140e3602083614918565b91506140ee82615354565b602082019050919050565b6000614106602f83614918565b91506141118261537d565b604082019050919050565b6000614129602183614918565b9150614134826153cc565b604082019050919050565b600061414c601b83614918565b91506141578261541b565b602082019050919050565b600061416f60008361490d565b915061417a82615444565b600082019050919050565b6000614192601083614918565b915061419d82615447565b602082019050919050565b60006141b5603183614918565b91506141c082615470565b604082019050919050565b60006141d8601a83614918565b91506141e3826154bf565b602082019050919050565b60006141fb602c83614918565b9150614206826154e8565b604082019050919050565b600061421e601683614918565b915061422982615537565b602082019050919050565b61423d81614abd565b82525050565b61424c81614abd565b82525050565b61425b81614ac7565b82525050565b600061426d8285613d17565b91506142798284613d17565b91508190509392505050565b600061429082613d8e565b915061429c8284613c8e565b60208201915081905092915050565b60006142b682614162565b9150819050919050565b60006020820190506142d56000830184613c03565b92915050565b60006080820190506142f06000830187613c03565b6142fd6020830186613c03565b61430a6040830185614243565b818103606083015261431c8184613ca5565b905095945050505050565b600060208201905081810360008301526143418184613c12565b905092915050565b600060208201905061435e6000830184613c70565b92915050565b60006080820190506143796000830187613c7f565b6143866020830186614252565b6143936040830185613c7f565b6143a06060830184613c7f565b95945050505050565b600060208201905081810360008301526143c38184613cde565b905092915050565b600060208201905081810360008301526143e481613d48565b9050919050565b6000602082019050818103600083015261440481613d6b565b9050919050565b6000602082019050818103600083015261442481613db1565b9050919050565b6000602082019050818103600083015261444481613dd4565b9050919050565b6000602082019050818103600083015261446481613df7565b9050919050565b6000602082019050818103600083015261448481613e1a565b9050919050565b600060208201905081810360008301526144a481613e3d565b9050919050565b600060208201905081810360008301526144c481613e60565b9050919050565b600060208201905081810360008301526144e481613e83565b9050919050565b6000602082019050818103600083015261450481613ea6565b9050919050565b6000602082019050818103600083015261452481613ec9565b9050919050565b6000602082019050818103600083015261454481613eec565b9050919050565b6000602082019050818103600083015261456481613f0f565b9050919050565b6000602082019050818103600083015261458481613f32565b9050919050565b600060208201905081810360008301526145a481613f55565b9050919050565b600060208201905081810360008301526145c481613f78565b9050919050565b600060208201905081810360008301526145e481613f9b565b9050919050565b6000602082019050818103600083015261460481613fbe565b9050919050565b6000602082019050818103600083015261462481613fe1565b9050919050565b6000602082019050818103600083015261464481614004565b9050919050565b6000602082019050818103600083015261466481614027565b9050919050565b600060208201905081810360008301526146848161404a565b9050919050565b600060208201905081810360008301526146a48161406d565b9050919050565b600060208201905081810360008301526146c481614090565b9050919050565b600060208201905081810360008301526146e4816140b3565b9050919050565b60006020820190508181036000830152614704816140d6565b9050919050565b60006020820190508181036000830152614724816140f9565b9050919050565b600060208201905081810360008301526147448161411c565b9050919050565b600060208201905081810360008301526147648161413f565b9050919050565b6000602082019050818103600083015261478481614185565b9050919050565b600060208201905081810360008301526147a4816141a8565b9050919050565b600060208201905081810360008301526147c4816141cb565b9050919050565b600060208201905081810360008301526147e4816141ee565b9050919050565b6000602082019050818103600083015261480481614211565b9050919050565b60006020820190506148206000830184614243565b92915050565b6000614830614841565b905061483c8282614b48565b919050565b6000604051905090565b600067ffffffffffffffff82111561486657614865614c8a565b5b61486f82614cb9565b9050602081019050919050565b600067ffffffffffffffff82111561489757614896614c8a565b5b6148a082614cb9565b9050602081019050919050565b6000819050602082019050919050565b600081519050919050565b600081519050919050565b600081519050919050565b6000602082019050919050565b600082825260208201905092915050565b600082825260208201905092915050565b600081905092915050565b600082825260208201905092915050565b600081905092915050565b600061493f82614abd565b915061494a83614abd565b9250827fffffffffffffffffffffffffffffffffffffffffffffffffffffffffffffffff0382111561497f5761497e614bfd565b5b828201905092915050565b600061499582614abd565b91506149a083614abd565b9250826149b0576149af614c2c565b5b828204905092915050565b60006149c682614abd565b91506149d183614abd565b9250817fffffffffffffffffffffffffffffffffffffffffffffffffffffffffffffffff0483118215151615614a0a57614a09614bfd565b5b828202905092915050565b6000614a2082614abd565b9150614a2b83614abd565b925082821015614a3e57614a3d614bfd565b5b828203905092915050565b6000614a5482614a9d565b9050919050565b60008115159050919050565b6000819050919050565b60007fffffffff0000000000000000000000000000000000000000000000000000000082169050919050565b600073ffffffffffffffffffffffffffffffffffffffff82169050919050565b6000819050919050565b600060ff82169050919050565b82818337600083830152505050565b60005b83811015614b01578082015181840152602081019050614ae6565b83811115614b10576000848401525b50505050565b60006002820490506001821680614b2e57607f821691505b60208210811415614b4257614b41614c5b565b5b50919050565b614b5182614cb9565b810181811067ffffffffffffffff82111715614b7057614b6f614c8a565b5b80604052505050565b6000614b8482614abd565b91507fffffffffffffffffffffffffffffffffffffffffffffffffffffffffffffffff821415614bb757614bb6614bfd565b5b600182019050919050565b6000819050919050565b6000614bd782614abd565b9150614be283614abd565b925082614bf257614bf1614c2c565b5b828206905092915050565b7f4e487b7100000000000000000000000000000000000000000000000000000000600052601160045260246000fd5b7f4e487b7100000000000000000000000000000000000000000000000000000000600052601260045260246000fd5b7f4e487b7100000000000000000000000000000000000000000000000000000000600052602260045260246000fd5b7f4e487b7100000000000000000000000000000000000000000000000000000000600052604160045260246000fd5b6000601f19601f8301169050919050565b7f45434453413a20696e76616c6964207369676e61747572650000000000000000600082015250565b7f45434453413a20696e76616c6964207369676e6174757265206c656e67746800600082015250565b7f19457468657265756d205369676e6564204d6573736167653a0a333200000000600082015250565b7f596f75206861766520746f206d696e74206174206c656173742031204e465400600082015250565b7f455243373231456e756d657261626c653a206f776e657220696e646578206f7560008201527f74206f6620626f756e6473000000000000000000000000000000000000000000602082015250565b7f43616e6e6f74206d696e7420737065636966696564206e756d626572206f662060008201527f4e46547300000000000000000000000000000000000000000000000000000000602082015250565b7f4e6f7420656e6f75676820657468657220746f207075726368617365204e465460008201527f7300000000000000000000000000000000000000000000000000000000000000602082015250565b7f4552433732313a207472616e7366657220746f206e6f6e20455243373231526560008201527f63656976657220696d706c656d656e7465720000000000000000000000000000602082015250565b7f4e6f7420656e6f756768204e46547320746f206d696e742e0000000000000000600082015250565b7f4f776e61626c653a206e6577206f776e657220697320746865207a65726f206160008201527f6464726573730000000000000000000000000000000000000000000000000000602082015250565b7f4552433732313a207472616e736665722066726f6d20696e636f72726563742060008201527f6f776e6572000000000000000000000000000000000000000000000000000000602082015250565b7f4552433732313a20746f6b656e20616c7265616479206d696e74656400000000600082015250565b7f4552433732313a207472616e7366657220746f20746865207a65726f2061646460008201527f7265737300000000000000000000000000000000000000000000000000000000602082015250565b7f4552433732313a20617070726f766520746f2063616c6c657200000000000000600082015250565b7f4e6f20657468657220746f207769746864726177000000000000000000000000600082015250565b7f45434453413a20696e76616c6964207369676e6174757265202773272076616c60008201527f7565000000000000000000000000000000000000000000000000000000000000602082015250565b7f4e6f7420656e6f75676820657468657220746f207075726368617365204e465460008201527f732e000000000000000000000000000000000000000000000000000000000000602082015250565b7f43616e6e6f74206d696e7420737065636966696564206e756d626572206f662060008201527f4e4654732e000000000000000000000000000000000000000000000000000000602082015250565b7f4552433732313a206f70657261746f7220717565727920666f72206e6f6e657860008201527f697374656e7420746f6b656e0000000000000000000000000000000000000000602082015250565b7f4552433732313a20617070726f76652063616c6c6572206973206e6f74206f7760008201527f6e6572206e6f7220617070726f76656420666f7220616c6c0000000000000000602082015250565b7f4552433732313a2062616c616e636520717565727920666f7220746865207a6560008201527f726f206164647265737300000000000000000000000000000000000000000000602082015250565b7f4552433732313a206f776e657220717565727920666f72206e6f6e657869737460008201527f656e7420746f6b656e0000000000000000000000000000000000000000000000602082015250565b7f45434453413a20696e76616c6964207369676e6174757265202776272076616c60008201527f7565000000000000000000000000000000000000000000000000000000000000602082015250565b7f4552433732313a206d696e7420746f20746865207a65726f2061646472657373600082015250565b7f4e6f7420656e6f756768204e46547320746f206d696e74000000000000000000600082015250565b7f4552433732313a20617070726f76656420717565727920666f72206e6f6e657860008201527f697374656e7420746f6b656e0000000000000000000000000000000000000000602082015250565b7f4f776e61626c653a2063616c6c6572206973206e6f7420746865206f776e6572600082015250565b7f4552433732314d657461646174613a2055524920717565727920666f72206e6f60008201527f6e6578697374656e7420746f6b656e0000000000000000000000000000000000602082015250565b7f4552433732313a20617070726f76616c20746f2063757272656e74206f776e6560008201527f7200000000000000000000000000000000000000000000000000000000000000602082015250565b7f41646472657373206973206e6f742077686974656c69737465642e0000000000600082015250565b50565b7f5472616e73666572206661696c65642e00000000000000000000000000000000600082015250565b7f4552433732313a207472616e736665722063616c6c6572206973206e6f74206f60008201527f776e6572206e6f7220617070726f766564000000000000000000000000000000602082015250565b7f596f752063616e6e6f74206d696e74207269676874206e6f772e000000000000600082015250565b7f455243373231456e756d657261626c653a20676c6f62616c20696e646578206f60008201527f7574206f6620626f756e64730000000000000000000000000000000000000000602082015250565b7f50726573616c65206973206e6f74206163746976652e00000000000000000000600082015250565b61556981614a49565b811461557457600080fd5b50565b61558081614a5b565b811461558b57600080fd5b50565b61559781614a67565b81146155a257600080fd5b50565b6155ae81614a71565b81146155b957600080fd5b50565b6155c581614abd565b81146155d057600080fd5b5056fea26469706673582212203758ac9baac62cceec48f3eefa1a87822a78768496955b30645400df030477c364736f6c63430008040033",
  "linkReferences": {},
  "deployedLinkReferences": {}
}