{
  "_format": "hh-sol-artifact-1",
  "contractName": "UnicornNodes",
  "sourceName": "contracts/UnicornNodes.sol",
  "abi": [
    {
      "inputs": [
        {
          "internalType": "string",
          "name": "baseURI",
          "type": "string"
        }
      ],
      "stateMutability": "nonpayable",
      "type": "constructor"
    },
    {
      "anonymous": false,
      "inputs": [
        {
          "indexed": true,
          "internalType": "address",
          "name": "owner",
          "type": "address"
        },
        {
          "indexed": true,
          "internalType": "address",
          "name": "approved",
          "type": "address"
        },
        {
          "indexed": true,
          "internalType": "uint256",
          "name": "tokenId",
          "type": "uint256"
        }
      ],
      "name": "Approval",
      "type": "event"
    },
    {
      "anonymous": false,
      "inputs": [
        {
          "indexed": true,
          "internalType": "address",
          "name": "owner",
          "type": "address"
        },
        {
          "indexed": true,
          "internalType": "address",
          "name": "operator",
          "type": "address"
        },
        {
          "indexed": false,
          "internalType": "bool",
          "name": "approved",
          "type": "bool"
        }
      ],
      "name": "ApprovalForAll",
      "type": "event"
    },
    {
      "anonymous": false,
      "inputs": [
        {
          "indexed": true,
          "internalType": "address",
          "name": "previousOwner",
          "type": "address"
        },
        {
          "indexed": true,
          "internalType": "address",
          "name": "newOwner",
          "type": "address"
        }
      ],
      "name": "OwnershipTransferred",
      "type": "event"
    },
    {
      "anonymous": false,
      "inputs": [
        {
          "indexed": true,
          "internalType": "address",
          "name": "from",
          "type": "address"
        },
        {
          "indexed": true,
          "internalType": "address",
          "name": "to",
          "type": "address"
        },
        {
          "indexed": true,
          "internalType": "uint256",
          "name": "tokenId",
          "type": "uint256"
        }
      ],
      "name": "Transfer",
      "type": "event"
    },
    {
      "inputs": [
        {
          "internalType": "address",
          "name": "to",
          "type": "address"
        },
        {
          "internalType": "uint256",
          "name": "tokenId",
          "type": "uint256"
        }
      ],
      "name": "approve",
      "outputs": [],
      "stateMutability": "nonpayable",
      "type": "function"
    },
    {
      "inputs": [
        {
          "internalType": "address",
          "name": "owner",
          "type": "address"
        }
      ],
      "name": "balanceOf",
      "outputs": [
        {
          "internalType": "uint256",
          "name": "",
          "type": "uint256"
        }
      ],
      "stateMutability": "view",
      "type": "function"
    },
    {
      "inputs": [],
      "name": "baseTokenURI",
      "outputs": [
        {
          "internalType": "string",
          "name": "",
          "type": "string"
        }
      ],
      "stateMutability": "view",
      "type": "function"
    },
    {
      "inputs": [
        {
          "internalType": "uint256",
          "name": "_count",
          "type": "uint256"
        }
      ],
      "name": "devMint",
      "outputs": [],
      "stateMutability": "nonpayable",
      "type": "function"
    },
    {
      "inputs": [
        {
          "internalType": "uint256",
          "name": "tokenId",
          "type": "uint256"
        }
      ],
      "name": "getApproved",
      "outputs": [
        {
          "internalType": "address",
          "name": "",
          "type": "address"
        }
      ],
      "stateMutability": "view",
      "type": "function"
    },
    {
      "inputs": [],
      "name": "getSupply",
      "outputs": [
        {
          "internalType": "uint256",
          "name": "",
          "type": "uint256"
        }
      ],
      "stateMutability": "view",
      "type": "function"
    },
    {
      "inputs": [
        {
          "internalType": "address",
          "name": "owner",
          "type": "address"
        },
        {
          "internalType": "address",
          "name": "operator",
          "type": "address"
        }
      ],
      "name": "isApprovedForAll",
      "outputs": [
        {
          "internalType": "bool",
          "name": "",
          "type": "bool"
        }
      ],
      "stateMutability": "view",
      "type": "function"
    },
    {
      "inputs": [],
      "name": "maxPerMint",
      "outputs": [
        {
          "internalType": "uint256",
          "name": "",
          "type": "uint256"
        }
      ],
      "stateMutability": "view",
      "type": "function"
    },
    {
      "inputs": [],
      "name": "maxSupply",
      "outputs": [
        {
          "internalType": "uint256",
          "name": "",
          "type": "uint256"
        }
      ],
      "stateMutability": "view",
      "type": "function"
    },
    {
      "inputs": [
        {
          "internalType": "uint256",
          "name": "_count",
          "type": "uint256"
        }
      ],
      "name": "mint",
      "outputs": [],
      "stateMutability": "payable",
      "type": "function"
    },
    {
      "inputs": [],
      "name": "name",
      "outputs": [
        {
          "internalType": "string",
          "name": "",
          "type": "string"
        }
      ],
      "stateMutability": "view",
      "type": "function"
    },
    {
      "inputs": [],
      "name": "owner",
      "outputs": [
        {
          "internalType": "address",
          "name": "",
          "type": "address"
        }
      ],
      "stateMutability": "view",
      "type": "function"
    },
    {
      "inputs": [
        {
          "internalType": "uint256",
          "name": "tokenId",
          "type": "uint256"
        }
      ],
      "name": "ownerOf",
      "outputs": [
        {
          "internalType": "address",
          "name": "",
          "type": "address"
        }
      ],
      "stateMutability": "view",
      "type": "function"
    },
    {
      "inputs": [],
      "name": "pause",
      "outputs": [],
      "stateMutability": "nonpayable",
      "type": "function"
    },
    {
      "inputs": [
        {
          "internalType": "uint256",
          "name": "_count",
          "type": "uint256"
        },
        {
          "internalType": "bytes32",
          "name": "hash",
          "type": "bytes32"
        },
        {
          "internalType": "bytes",
          "name": "signature",
          "type": "bytes"
        }
      ],
      "name": "preSaleMint",
      "outputs": [],
      "stateMutability": "payable",
      "type": "function"
    },
    {
      "inputs": [],
      "name": "price",
      "outputs": [
        {
          "internalType": "uint256",
          "name": "",
          "type": "uint256"
        }
      ],
      "stateMutability": "view",
      "type": "function"
    },
    {
      "inputs": [
        {
          "internalType": "bytes32",
          "name": "hash",
          "type": "bytes32"
        },
        {
          "internalType": "bytes",
          "name": "signature",
          "type": "bytes"
        }
      ],
      "name": "recoverSigner",
      "outputs": [
        {
          "internalType": "address",
          "name": "",
          "type": "address"
        }
      ],
      "stateMutability": "pure",
      "type": "function"
    },
    {
      "inputs": [],
      "name": "renounceOwnership",
      "outputs": [],
      "stateMutability": "nonpayable",
      "type": "function"
    },
    {
      "inputs": [
        {
          "internalType": "address",
          "name": "from",
          "type": "address"
        },
        {
          "internalType": "address",
          "name": "to",
          "type": "address"
        },
        {
          "internalType": "uint256",
          "name": "tokenId",
          "type": "uint256"
        }
      ],
      "name": "safeTransferFrom",
      "outputs": [],
      "stateMutability": "nonpayable",
      "type": "function"
    },
    {
      "inputs": [
        {
          "internalType": "address",
          "name": "from",
          "type": "address"
        },
        {
          "internalType": "address",
          "name": "to",
          "type": "address"
        },
        {
          "internalType": "uint256",
          "name": "tokenId",
          "type": "uint256"
        },
        {
          "internalType": "bytes",
          "name": "_data",
          "type": "bytes"
        }
      ],
      "name": "safeTransferFrom",
      "outputs": [],
      "stateMutability": "nonpayable",
      "type": "function"
    },
    {
      "inputs": [
        {
          "internalType": "address",
          "name": "operator",
          "type": "address"
        },
        {
          "internalType": "bool",
          "name": "approved",
          "type": "bool"
        }
      ],
      "name": "setApprovalForAll",
      "outputs": [],
      "stateMutability": "nonpayable",
      "type": "function"
    },
    {
      "inputs": [
        {
          "internalType": "string",
          "name": "_baseTokenURI",
          "type": "string"
        }
      ],
      "name": "setBaseURI",
      "outputs": [],
      "stateMutability": "nonpayable",
      "type": "function"
    },
    {
      "inputs": [
        {
          "internalType": "uint256",
          "name": "_price",
          "type": "uint256"
        }
      ],
      "name": "setPrice",
      "outputs": [],
      "stateMutability": "nonpayable",
      "type": "function"
    },
    {
      "inputs": [
        {
          "internalType": "bool",
          "name": "_publicMint",
          "type": "bool"
        }
      ],
      "name": "setPublicMint",
      "outputs": [],
      "stateMutability": "nonpayable",
      "type": "function"
    },
    {
      "inputs": [
        {
          "internalType": "bool",
          "name": "_whitelistMint",
          "type": "bool"
        }
      ],
      "name": "setWhitelistMint",
      "outputs": [],
      "stateMutability": "nonpayable",
      "type": "function"
    },
    {
      "inputs": [
        {
          "internalType": "bytes4",
          "name": "interfaceId",
          "type": "bytes4"
        }
      ],
      "name": "supportsInterface",
      "outputs": [
        {
          "internalType": "bool",
          "name": "",
          "type": "bool"
        }
      ],
      "stateMutability": "view",
      "type": "function"
    },
    {
      "inputs": [],
      "name": "symbol",
      "outputs": [
        {
          "internalType": "string",
          "name": "",
          "type": "string"
        }
      ],
      "stateMutability": "view",
      "type": "function"
    },
    {
      "inputs": [
        {
          "internalType": "address",
          "name": "_owner",
          "type": "address"
        }
      ],
      "name": "tokenBalanceOfOwner",
      "outputs": [
        {
          "internalType": "uint256",
          "name": "",
          "type": "uint256"
        }
      ],
      "stateMutability": "view",
      "type": "function"
    },
    {
      "inputs": [
        {
          "internalType": "uint256",
          "name": "index",
          "type": "uint256"
        }
      ],
      "name": "tokenByIndex",
      "outputs": [
        {
          "internalType": "uint256",
          "name": "",
          "type": "uint256"
        }
      ],
      "stateMutability": "view",
      "type": "function"
    },
    {
      "inputs": [
        {
          "internalType": "address",
          "name": "owner",
          "type": "address"
        },
        {
          "internalType": "uint256",
          "name": "index",
          "type": "uint256"
        }
      ],
      "name": "tokenOfOwnerByIndex",
      "outputs": [
        {
          "internalType": "uint256",
          "name": "",
          "type": "uint256"
        }
      ],
      "stateMutability": "view",
      "type": "function"
    },
    {
      "inputs": [
        {
          "internalType": "uint256",
          "name": "tokenId",
          "type": "uint256"
        }
      ],
      "name": "tokenURI",
      "outputs": [
        {
          "internalType": "string",
          "name": "",
          "type": "string"
        }
      ],
      "stateMutability": "view",
      "type": "function"
    },
    {
      "inputs": [],
      "name": "totalSupply",
      "outputs": [
        {
          "internalType": "uint256",
          "name": "",
          "type": "uint256"
        }
      ],
      "stateMutability": "view",
      "type": "function"
    },
    {
      "inputs": [
        {
          "internalType": "address",
          "name": "from",
          "type": "address"
        },
        {
          "internalType": "address",
          "name": "to",
          "type": "address"
        },
        {
          "internalType": "uint256",
          "name": "tokenId",
          "type": "uint256"
        }
      ],
      "name": "transferFrom",
      "outputs": [],
      "stateMutability": "nonpayable",
      "type": "function"
    },
    {
      "inputs": [
        {
          "internalType": "address",
          "name": "newOwner",
          "type": "address"
        }
      ],
      "name": "transferOwnership",
      "outputs": [],
      "stateMutability": "nonpayable",
      "type": "function"
    },
    {
      "inputs": [],
      "name": "withdraw",
      "outputs": [],
      "stateMutability": "payable",
      "type": "function"
    }
  ],
  "bytecode": "0x6080604052611388600c5566b1a2bc2ec50000600d55600a600e556000601060006101000a81548160ff0219169083151502179055506000601060016101000a81548160ff0219169083151502179055503480156200005d57600080fd5b5060405162005aae38038062005aae833981810160405281019062000083919062000420565b6040518060400160405280600d81526020017f556e69636f726e204e6f646573000000000000000000000000000000000000008152506040518060400160405280600581526020017f434f524e53000000000000000000000000000000000000000000000000000000815250816000908051906020019062000107929190620002fe565b50806001908051906020019062000120929190620002fe565b50505062000143620001376200015b60201b60201c565b6200016360201b60201c565b62000154816200022960201b60201c565b5062000658565b600033905090565b6000600a60009054906101000a900473ffffffffffffffffffffffffffffffffffffffff16905081600a60006101000a81548173ffffffffffffffffffffffffffffffffffffffff021916908373ffffffffffffffffffffffffffffffffffffffff1602179055508173ffffffffffffffffffffffffffffffffffffffff168173ffffffffffffffffffffffffffffffffffffffff167f8be0079c531659141344cd1fd0a4f28419497f9722a3daafe3b4186f6b6457e060405160405180910390a35050565b620002396200015b60201b60201c565b73ffffffffffffffffffffffffffffffffffffffff166200025f620002d460201b60201c565b73ffffffffffffffffffffffffffffffffffffffff1614620002b8576040517f08c379a0000000000000000000000000000000000000000000000000000000008152600401620002af906200048c565b60405180910390fd5b80600f9080519060200190620002d0929190620002fe565b5050565b6000600a60009054906101000a900473ffffffffffffffffffffffffffffffffffffffff16905090565b8280546200030c9062000554565b90600052602060002090601f0160209004810192826200033057600085556200037c565b82601f106200034b57805160ff19168380011785556200037c565b828001600101855582156200037c579182015b828111156200037b5782518255916020019190600101906200035e565b5b5090506200038b91906200038f565b5090565b5b80821115620003aa57600081600090555060010162000390565b5090565b6000620003c5620003bf84620004d7565b620004ae565b905082815260208101848484011115620003de57600080fd5b620003eb8482856200051e565b509392505050565b600082601f8301126200040557600080fd5b815162000417848260208601620003ae565b91505092915050565b6000602082840312156200043357600080fd5b600082015167ffffffffffffffff8111156200044e57600080fd5b6200045c84828501620003f3565b91505092915050565b6000620004746020836200050d565b915062000481826200062f565b602082019050919050565b60006020820190508181036000830152620004a78162000465565b9050919050565b6000620004ba620004cd565b9050620004c882826200058a565b919050565b6000604051905090565b600067ffffffffffffffff821115620004f557620004f4620005ef565b5b62000500826200061e565b9050602081019050919050565b600082825260208201905092915050565b60005b838110156200053e57808201518184015260208101905062000521565b838111156200054e576000848401525b50505050565b600060028204905060018216806200056d57607f821691505b60208210811415620005845762000583620005c0565b5b50919050565b62000595826200061e565b810181811067ffffffffffffffff82111715620005b757620005b6620005ef565b5b80604052505050565b7f4e487b7100000000000000000000000000000000000000000000000000000000600052602260045260246000fd5b7f4e487b7100000000000000000000000000000000000000000000000000000000600052604160045260246000fd5b6000601f19601f8301169050919050565b7f4f776e61626c653a2063616c6c6572206973206e6f7420746865206f776e6572600082015250565b61544680620006686000396000f3fe6080604052600436106102045760003560e01c80636c9c2faf11610118578063a0712d68116100a0578063d547cfb71161006f578063d547cfb714610728578063d5abeb0114610753578063d8ea92351461077e578063e985e9c5146107bb578063f2fde38b146107f857610204565b8063a0712d681461067d578063a22cb46514610699578063b88d4fde146106c2578063c87b56dd146106eb57610204565b80638da5cb5b116100e75780638da5cb5b1461059657806391b7f5ed146105c157806395d89b41146105ea57806397aba7f914610615578063a035b1fe1461065257610204565b80636c9c2faf1461050057806370a082311461052b578063715018a6146105685780638456cb591461057f57610204565b80632f745c591161019b5780634f6ccce71161016a5780634f6ccce714610409578063507e094f1461044657806355f804b3146104715780635d56d55e1461049a5780636352211e146104c357610204565b80632f745c5914610370578063375a069a146103ad5780633ccfd60b146103d657806342842e0e146103e057610204565b80630e2d56cf116101d75780630e2d56cf146102d757806310bcf49b1461030057806318160ddd1461031c57806323b872dd1461034757610204565b806301ffc9a71461020957806306fdde0314610246578063081812fc14610271578063095ea7b3146102ae575b600080fd5b34801561021557600080fd5b50610230600480360381019061022b91906139e5565b610821565b60405161023d91906141bf565b60405180910390f35b34801561025257600080fd5b5061025b61089b565b604051610268919061421f565b60405180910390f35b34801561027d57600080fd5b5061029860048036038101906102939190613a78565b61092d565b6040516102a59190614158565b60405180910390f35b3480156102ba57600080fd5b506102d560048036038101906102d0919061392c565b6109b2565b005b3480156102e357600080fd5b506102fe60048036038101906102f99190613968565b610aca565b005b61031a60048036038101906103159190613aa1565b610b63565b005b34801561032857600080fd5b50610331610d69565b60405161033e9190614681565b60405180910390f35b34801561035357600080fd5b5061036e60048036038101906103699190613826565b610d76565b005b34801561037c57600080fd5b506103976004803603810190610392919061392c565b610dd6565b6040516103a49190614681565b60405180910390f35b3480156103b957600080fd5b506103d460048036038101906103cf9190613a78565b610e7b565b005b6103de610fc9565b005b3480156103ec57600080fd5b5061040760048036038101906104029190613826565b61113d565b005b34801561041557600080fd5b50610430600480360381019061042b9190613a78565b61115d565b60405161043d9190614681565b60405180910390f35b34801561045257600080fd5b5061045b6111f4565b6040516104689190614681565b60405180910390f35b34801561047d57600080fd5b5061049860048036038101906104939190613a37565b6111fa565b005b3480156104a657600080fd5b506104c160048036038101906104bc9190613968565b611290565b005b3480156104cf57600080fd5b506104ea60048036038101906104e59190613a78565b611329565b6040516104f79190614158565b60405180910390f35b34801561050c57600080fd5b506105156113db565b6040516105229190614681565b60405180910390f35b34801561053757600080fd5b50610552600480360381019061054d91906137c1565b61146e565b60405161055f9190614681565b60405180910390f35b34801561057457600080fd5b5061057d611526565b005b34801561058b57600080fd5b506105946115ae565b005b3480156105a257600080fd5b506105ab611662565b6040516105b89190614158565b60405180910390f35b3480156105cd57600080fd5b506105e860048036038101906105e39190613a78565b61168c565b005b3480156105f657600080fd5b506105ff611712565b60405161060c919061421f565b60405180910390f35b34801561062157600080fd5b5061063c60048036038101906106379190613991565b6117a4565b6040516106499190614158565b60405180910390f35b34801561065e57600080fd5b506106676117e3565b6040516106749190614681565b60405180910390f35b61069760048036038101906106929190613a78565b6117e9565b005b3480156106a557600080fd5b506106c060048036038101906106bb91906138f0565b61196f565b005b3480156106ce57600080fd5b506106e960048036038101906106e49190613875565b611985565b005b3480156106f757600080fd5b50610712600480360381019061070d9190613a78565b6119e7565b60405161071f919061421f565b60405180910390f35b34801561073457600080fd5b5061073d611a8e565b60405161074a919061421f565b60405180910390f35b34801561075f57600080fd5b50610768611b1c565b6040516107759190614681565b60405180910390f35b34801561078a57600080fd5b506107a560048036038101906107a091906137c1565b611b22565b6040516107b29190614681565b60405180910390f35b3480156107c757600080fd5b506107e260048036038101906107dd91906137ea565b611b39565b6040516107ef91906141bf565b60405180910390f35b34801561080457600080fd5b5061081f600480360381019061081a91906137c1565b611bcd565b005b60007f780e9d63000000000000000000000000000000000000000000000000000000007bffffffffffffffffffffffffffffffffffffffffffffffffffffffff1916827bffffffffffffffffffffffffffffffffffffffffffffffffffffffff19161480610894575061089382611cc5565b5b9050919050565b6060600080546108aa90614953565b80601f01602080910402602001604051908101604052809291908181526020018280546108d690614953565b80156109235780601f106108f857610100808354040283529160200191610923565b820191906000526020600020905b81548152906001019060200180831161090657829003601f168201915b5050505050905090565b600061093882611da7565b610977576040517f08c379a000000000000000000000000000000000000000000000000000000000815260040161096e90614541565b60405180910390fd5b6004600083815260200190815260200160002060009054906101000a900473ffffffffffffffffffffffffffffffffffffffff169050919050565b60006109bd82611329565b90508073ffffffffffffffffffffffffffffffffffffffff168373ffffffffffffffffffffffffffffffffffffffff161415610a2e576040517f08c379a0000000000000000000000000000000000000000000000000000000008152600401610a25906145a1565b60405180910390fd5b8073ffffffffffffffffffffffffffffffffffffffff16610a4d611e13565b73ffffffffffffffffffffffffffffffffffffffff161480610a7c5750610a7b81610a76611e13565b611b39565b5b610abb576040517f08c379a0000000000000000000000000000000000000000000000000000000008152600401610ab290614481565b60405180910390fd5b610ac58383611e1b565b505050565b610ad2611e13565b73ffffffffffffffffffffffffffffffffffffffff16610af0611662565b73ffffffffffffffffffffffffffffffffffffffff1614610b46576040517f08c379a0000000000000000000000000000000000000000000000000000000008152600401610b3d90614561565b60405180910390fd5b80601060006101000a81548160ff02191690831515021790555050565b6000610b6f600b611ed4565b9050601060019054906101000a900460ff16610bc0576040517f08c379a0000000000000000000000000000000000000000000000000000000008152600401610bb790614661565b60405180910390fd5b600c54610bd68583611ee290919063ffffffff16565b10610c16576040517f08c379a0000000000000000000000000000000000000000000000000000000008152600401610c0d90614521565b60405180910390fd5b600084118015610c285750600e548411155b610c67576040517f08c379a0000000000000000000000000000000000000000000000000000000008152600401610c5e906142c1565b60405180910390fd5b610c7c84600d54611ef890919063ffffffff16565b341015610cbe576040517f08c379a0000000000000000000000000000000000000000000000000000000008152600401610cb5906142e1565b60405180910390fd5b610cc6611662565b73ffffffffffffffffffffffffffffffffffffffff16610ce684846117a4565b73ffffffffffffffffffffffffffffffffffffffff1614610d3c576040517f08c379a0000000000000000000000000000000000000000000000000000000008152600401610d33906145c1565b60405180910390fd5b60005b84811015610d6257610d4f611f0e565b8080610d5a906149b6565b915050610d3f565b5050505050565b6000600880549050905090565b610d87610d81611e13565b82611f33565b610dc6576040517f08c379a0000000000000000000000000000000000000000000000000000000008152600401610dbd90614601565b60405180910390fd5b610dd1838383612011565b505050565b6000610de18361146e565b8210610e22576040517f08c379a0000000000000000000000000000000000000000000000000000000008152600401610e19906142a1565b60405180910390fd5b600660008473ffffffffffffffffffffffffffffffffffffffff1673ffffffffffffffffffffffffffffffffffffffff168152602001908152602001600020600083815260200190815260200160002054905092915050565b610e83611e13565b73ffffffffffffffffffffffffffffffffffffffff16610ea1611662565b73ffffffffffffffffffffffffffffffffffffffff1614610ef7576040517f08c379a0000000000000000000000000000000000000000000000000000000008152600401610eee90614561565b60405180910390fd5b6000610f03600b611ed4565b9050600c54610f1b8383611ee290919063ffffffff16565b10610f5b576040517f08c379a0000000000000000000000000000000000000000000000000000000008152600401610f5290614521565b60405180910390fd5b60008211610f9e576040517f08c379a0000000000000000000000000000000000000000000000000000000008152600401610f9590614281565b60405180910390fd5b60005b82811015610fc457610fb1611f0e565b8080610fbc906149b6565b915050610fa1565b505050565b610fd1611e13565b73ffffffffffffffffffffffffffffffffffffffff16610fef611662565b73ffffffffffffffffffffffffffffffffffffffff1614611045576040517f08c379a000000000000000000000000000000000000000000000000000000000815260040161103c90614561565b60405180910390fd5b60004790506000811161108d576040517f08c379a0000000000000000000000000000000000000000000000000000000008152600401611084906143e1565b60405180910390fd5b60003373ffffffffffffffffffffffffffffffffffffffff16826040516110b390614143565b60006040518083038185875af1925050503d80600081146110f0576040519150601f19603f3d011682016040523d82523d6000602084013e6110f5565b606091505b5050905080611139576040517f08c379a0000000000000000000000000000000000000000000000000000000008152600401611130906145e1565b60405180910390fd5b5050565b61115883838360405180602001604052806000815250611985565b505050565b6000611167610d69565b82106111a8576040517f08c379a000000000000000000000000000000000000000000000000000000000815260040161119f90614641565b60405180910390fd5b600882815481106111e2577f4e487b7100000000000000000000000000000000000000000000000000000000600052603260045260246000fd5b90600052602060002001549050919050565b600e5481565b611202611e13565b73ffffffffffffffffffffffffffffffffffffffff16611220611662565b73ffffffffffffffffffffffffffffffffffffffff1614611276576040517f08c379a000000000000000000000000000000000000000000000000000000000815260040161126d90614561565b60405180910390fd5b80600f908051906020019061128c9291906135d0565b5050565b611298611e13565b73ffffffffffffffffffffffffffffffffffffffff166112b6611662565b73ffffffffffffffffffffffffffffffffffffffff161461130c576040517f08c379a000000000000000000000000000000000000000000000000000000000815260040161130390614561565b60405180910390fd5b80601060016101000a81548160ff02191690831515021790555050565b6000806002600084815260200190815260200160002060009054906101000a900473ffffffffffffffffffffffffffffffffffffffff169050600073ffffffffffffffffffffffffffffffffffffffff168173ffffffffffffffffffffffffffffffffffffffff1614156113d2576040517f08c379a00000000000000000000000000000000000000000000000000000000081526004016113c9906144c1565b60405180910390fd5b80915050919050565b60006113e5611e13565b73ffffffffffffffffffffffffffffffffffffffff16611403611662565b73ffffffffffffffffffffffffffffffffffffffff1614611459576040517f08c379a000000000000000000000000000000000000000000000000000000000815260040161145090614561565b60405180910390fd5b6000611465600b611ed4565b90508091505090565b60008073ffffffffffffffffffffffffffffffffffffffff168273ffffffffffffffffffffffffffffffffffffffff1614156114df576040517f08c379a00000000000000000000000000000000000000000000000000000000081526004016114d6906144a1565b60405180910390fd5b600360008373ffffffffffffffffffffffffffffffffffffffff1673ffffffffffffffffffffffffffffffffffffffff168152602001908152602001600020549050919050565b61152e611e13565b73ffffffffffffffffffffffffffffffffffffffff1661154c611662565b73ffffffffffffffffffffffffffffffffffffffff16146115a2576040517f08c379a000000000000000000000000000000000000000000000000000000000815260040161159990614561565b60405180910390fd5b6115ac6000612278565b565b6115b6611e13565b73ffffffffffffffffffffffffffffffffffffffff166115d4611662565b73ffffffffffffffffffffffffffffffffffffffff161461162a576040517f08c379a000000000000000000000000000000000000000000000000000000000815260040161162190614561565b60405180910390fd5b6000601060016101000a81548160ff0219169083151502179055506000601060006101000a81548160ff021916908315150217905550565b6000600a60009054906101000a900473ffffffffffffffffffffffffffffffffffffffff16905090565b611694611e13565b73ffffffffffffffffffffffffffffffffffffffff166116b2611662565b73ffffffffffffffffffffffffffffffffffffffff1614611708576040517f08c379a00000000000000000000000000000000000000000000000000000000081526004016116ff90614561565b60405180910390fd5b80600d8190555050565b60606001805461172190614953565b80601f016020809104026020016040519081016040528092919081815260200182805461174d90614953565b801561179a5780601f1061176f5761010080835404028352916020019161179a565b820191906000526020600020905b81548152906001019060200180831161177d57829003601f168201915b5050505050905090565b600080836040516020016117b8919061411d565b6040516020818303038152906040528051906020012090506117da818461233e565b91505092915050565b600d5481565b60006117f5600b611ed4565b9050601060009054906101000a900460ff16611846576040517f08c379a000000000000000000000000000000000000000000000000000000000815260040161183d90614621565b60405180910390fd5b600c5461185c8383611ee290919063ffffffff16565b1061189c576040517f08c379a000000000000000000000000000000000000000000000000000000000815260040161189390614321565b60405180910390fd5b6000821180156118ae5750600e548211155b6118ed576040517f08c379a00000000000000000000000000000000000000000000000000000000081526004016118e490614441565b60405180910390fd5b61190282600d54611ef890919063ffffffff16565b341015611944576040517f08c379a000000000000000000000000000000000000000000000000000000000815260040161193b90614421565b60405180910390fd5b60005b8281101561196a57611957611f0e565b8080611962906149b6565b915050611947565b505050565b61198161197a611e13565b8383612365565b5050565b611996611990611e13565b83611f33565b6119d5576040517f08c379a00000000000000000000000000000000000000000000000000000000081526004016119cc90614601565b60405180910390fd5b6119e1848484846124d2565b50505050565b60606119f282611da7565b611a31576040517f08c379a0000000000000000000000000000000000000000000000000000000008152600401611a2890614581565b60405180910390fd5b6000611a3b61252e565b90506000815111611a5b5760405180602001604052806000815250611a86565b80611a65846125c0565b604051602001611a769291906140f9565b6040516020818303038152906040525b915050919050565b600f8054611a9b90614953565b80601f0160208091040260200160405190810160405280929190818152602001828054611ac790614953565b8015611b145780601f10611ae957610100808354040283529160200191611b14565b820191906000526020600020905b815481529060010190602001808311611af757829003601f168201915b505050505081565b600c5481565b600080611b2e8361146e565b905080915050919050565b6000600560008473ffffffffffffffffffffffffffffffffffffffff1673ffffffffffffffffffffffffffffffffffffffff16815260200190815260200160002060008373ffffffffffffffffffffffffffffffffffffffff1673ffffffffffffffffffffffffffffffffffffffff16815260200190815260200160002060009054906101000a900460ff16905092915050565b611bd5611e13565b73ffffffffffffffffffffffffffffffffffffffff16611bf3611662565b73ffffffffffffffffffffffffffffffffffffffff1614611c49576040517f08c379a0000000000000000000000000000000000000000000000000000000008152600401611c4090614561565b60405180910390fd5b600073ffffffffffffffffffffffffffffffffffffffff168173ffffffffffffffffffffffffffffffffffffffff161415611cb9576040517f08c379a0000000000000000000000000000000000000000000000000000000008152600401611cb090614341565b60405180910390fd5b611cc281612278565b50565b60007f80ac58cd000000000000000000000000000000000000000000000000000000007bffffffffffffffffffffffffffffffffffffffffffffffffffffffff1916827bffffffffffffffffffffffffffffffffffffffffffffffffffffffff19161480611d9057507f5b5e139f000000000000000000000000000000000000000000000000000000007bffffffffffffffffffffffffffffffffffffffffffffffffffffffff1916827bffffffffffffffffffffffffffffffffffffffffffffffffffffffff1916145b80611da05750611d9f8261276d565b5b9050919050565b60008073ffffffffffffffffffffffffffffffffffffffff166002600084815260200190815260200160002060009054906101000a900473ffffffffffffffffffffffffffffffffffffffff1673ffffffffffffffffffffffffffffffffffffffff1614159050919050565b600033905090565b816004600083815260200190815260200160002060006101000a81548173ffffffffffffffffffffffffffffffffffffffff021916908373ffffffffffffffffffffffffffffffffffffffff160217905550808273ffffffffffffffffffffffffffffffffffffffff16611e8e83611329565b73ffffffffffffffffffffffffffffffffffffffff167f8c5be1e5ebec7d5bd14f71427d1e84f3dd0314c0f7b2291e5b200ac8c7c3b92560405160405180910390a45050565b600081600001549050919050565b60008183611ef09190614771565b905092915050565b60008183611f0691906147f8565b905092915050565b6000611f1a600b611ed4565b9050611f2633826127d7565b611f30600b6127f5565b50565b6000611f3e82611da7565b611f7d576040517f08c379a0000000000000000000000000000000000000000000000000000000008152600401611f7490614461565b60405180910390fd5b6000611f8883611329565b90508073ffffffffffffffffffffffffffffffffffffffff168473ffffffffffffffffffffffffffffffffffffffff161480611ff757508373ffffffffffffffffffffffffffffffffffffffff16611fdf8461092d565b73ffffffffffffffffffffffffffffffffffffffff16145b8061200857506120078185611b39565b5b91505092915050565b8273ffffffffffffffffffffffffffffffffffffffff1661203182611329565b73ffffffffffffffffffffffffffffffffffffffff1614612087576040517f08c379a000000000000000000000000000000000000000000000000000000000815260040161207e90614361565b60405180910390fd5b600073ffffffffffffffffffffffffffffffffffffffff168273ffffffffffffffffffffffffffffffffffffffff1614156120f7576040517f08c379a00000000000000000000000000000000000000000000000000000000081526004016120ee906143a1565b60405180910390fd5b61210283838361280b565b61210d600082611e1b565b6001600360008573ffffffffffffffffffffffffffffffffffffffff1673ffffffffffffffffffffffffffffffffffffffff168152602001908152602001600020600082825461215d9190614852565b925050819055506001600360008473ffffffffffffffffffffffffffffffffffffffff1673ffffffffffffffffffffffffffffffffffffffff16815260200190815260200160002060008282546121b49190614771565b92505081905550816002600083815260200190815260200160002060006101000a81548173ffffffffffffffffffffffffffffffffffffffff021916908373ffffffffffffffffffffffffffffffffffffffff160217905550808273ffffffffffffffffffffffffffffffffffffffff168473ffffffffffffffffffffffffffffffffffffffff167fddf252ad1be2c89b69c2b068fc378daa952ba7f163c4a11628f55a4df523b3ef60405160405180910390a461227383838361291f565b505050565b6000600a60009054906101000a900473ffffffffffffffffffffffffffffffffffffffff16905081600a60006101000a81548173ffffffffffffffffffffffffffffffffffffffff021916908373ffffffffffffffffffffffffffffffffffffffff1602179055508173ffffffffffffffffffffffffffffffffffffffff168173ffffffffffffffffffffffffffffffffffffffff167f8be0079c531659141344cd1fd0a4f28419497f9722a3daafe3b4186f6b6457e060405160405180910390a35050565b600080600061234d8585612924565b9150915061235a816129a7565b819250505092915050565b8173ffffffffffffffffffffffffffffffffffffffff168373ffffffffffffffffffffffffffffffffffffffff1614156123d4576040517f08c379a00000000000000000000000000000000000000000000000000000000081526004016123cb906143c1565b60405180910390fd5b80600560008573ffffffffffffffffffffffffffffffffffffffff1673ffffffffffffffffffffffffffffffffffffffff16815260200190815260200160002060008473ffffffffffffffffffffffffffffffffffffffff1673ffffffffffffffffffffffffffffffffffffffff16815260200190815260200160002060006101000a81548160ff0219169083151502179055508173ffffffffffffffffffffffffffffffffffffffff168373ffffffffffffffffffffffffffffffffffffffff167f17307eab39ab6107e8899845ad3d59bd9653f200f220920489ca2b5937696c31836040516124c591906141bf565b60405180910390a3505050565b6124dd848484612011565b6124e984848484612cf8565b612528576040517f08c379a000000000000000000000000000000000000000000000000000000000815260040161251f90614301565b60405180910390fd5b50505050565b6060600f805461253d90614953565b80601f016020809104026020016040519081016040528092919081815260200182805461256990614953565b80156125b65780601f1061258b576101008083540402835291602001916125b6565b820191906000526020600020905b81548152906001019060200180831161259957829003601f168201915b5050505050905090565b60606000821415612608576040518060400160405280600181526020017f30000000000000000000000000000000000000000000000000000000000000008152509050612768565b600082905060005b6000821461263a578080612623906149b6565b915050600a8261263391906147c7565b9150612610565b60008167ffffffffffffffff81111561267c577f4e487b7100000000000000000000000000000000000000000000000000000000600052604160045260246000fd5b6040519080825280601f01601f1916602001820160405280156126ae5781602001600182028036833780820191505090505b5090505b60008514612761576001826126c79190614852565b9150600a856126d69190614a09565b60306126e29190614771565b60f81b81838151811061271e577f4e487b7100000000000000000000000000000000000000000000000000000000600052603260045260246000fd5b60200101907effffffffffffffffffffffffffffffffffffffffffffffffffffffffffffff1916908160001a905350600a8561275a91906147c7565b94506126b2565b8093505050505b919050565b60007f01ffc9a7000000000000000000000000000000000000000000000000000000007bffffffffffffffffffffffffffffffffffffffffffffffffffffffff1916827bffffffffffffffffffffffffffffffffffffffffffffffffffffffff1916149050919050565b6127f1828260405180602001604052806000815250612e8f565b5050565b6001816000016000828254019250508190555050565b612816838383612eea565b600073ffffffffffffffffffffffffffffffffffffffff168373ffffffffffffffffffffffffffffffffffffffff1614156128595761285481612eef565b612898565b8173ffffffffffffffffffffffffffffffffffffffff168373ffffffffffffffffffffffffffffffffffffffff1614612897576128968382612f38565b5b5b600073ffffffffffffffffffffffffffffffffffffffff168273ffffffffffffffffffffffffffffffffffffffff1614156128db576128d6816130a5565b61291a565b8273ffffffffffffffffffffffffffffffffffffffff168273ffffffffffffffffffffffffffffffffffffffff16146129195761291882826131e8565b5b5b505050565b505050565b6000806041835114156129665760008060006020860151925060408601519150606086015160001a905061295a87828585613267565b945094505050506129a0565b60408351141561299757600080602085015191506040850151905061298c868383613374565b9350935050506129a0565b60006002915091505b9250929050565b600060048111156129e1577f4e487b7100000000000000000000000000000000000000000000000000000000600052602160045260246000fd5b816004811115612a1a577f4e487b7100000000000000000000000000000000000000000000000000000000600052602160045260246000fd5b1415612a2557612cf5565b60016004811115612a5f577f4e487b7100000000000000000000000000000000000000000000000000000000600052602160045260246000fd5b816004811115612a98577f4e487b7100000000000000000000000000000000000000000000000000000000600052602160045260246000fd5b1415612ad9576040517f08c379a0000000000000000000000000000000000000000000000000000000008152600401612ad090614241565b60405180910390fd5b60026004811115612b13577f4e487b7100000000000000000000000000000000000000000000000000000000600052602160045260246000fd5b816004811115612b4c577f4e487b7100000000000000000000000000000000000000000000000000000000600052602160045260246000fd5b1415612b8d576040517f08c379a0000000000000000000000000000000000000000000000000000000008152600401612b8490614261565b60405180910390fd5b60036004811115612bc7577f4e487b7100000000000000000000000000000000000000000000000000000000600052602160045260246000fd5b816004811115612c00577f4e487b7100000000000000000000000000000000000000000000000000000000600052602160045260246000fd5b1415612c41576040517f08c379a0000000000000000000000000000000000000000000000000000000008152600401612c3890614401565b60405180910390fd5b600480811115612c7a577f4e487b7100000000000000000000000000000000000000000000000000000000600052602160045260246000fd5b816004811115612cb3577f4e487b7100000000000000000000000000000000000000000000000000000000600052602160045260246000fd5b1415612cf4576040517f08c379a0000000000000000000000000000000000000000000000000000000008152600401612ceb906144e1565b60405180910390fd5b5b50565b6000612d198473ffffffffffffffffffffffffffffffffffffffff166133d3565b15612e82578373ffffffffffffffffffffffffffffffffffffffff1663150b7a02612d42611e13565b8786866040518563ffffffff1660e01b8152600401612d649493929190614173565b602060405180830381600087803b158015612d7e57600080fd5b505af1925050508015612daf57506040513d601f19601f82011682018060405250810190612dac9190613a0e565b60015b612e32573d8060008114612ddf576040519150601f19603f3d011682016040523d82523d6000602084013e612de4565b606091505b50600081511415612e2a576040517f08c379a0000000000000000000000000000000000000000000000000000000008152600401612e2190614301565b60405180910390fd5b805181602001fd5b63150b7a0260e01b7bffffffffffffffffffffffffffffffffffffffffffffffffffffffff1916817bffffffffffffffffffffffffffffffffffffffffffffffffffffffff191614915050612e87565b600190505b949350505050565b612e9983836133f6565b612ea66000848484612cf8565b612ee5576040517f08c379a0000000000000000000000000000000000000000000000000000000008152600401612edc90614301565b60405180910390fd5b505050565b505050565b6008805490506009600083815260200190815260200160002081905550600881908060018154018082558091505060019003906000526020600020016000909190919091505550565b60006001612f458461146e565b612f4f9190614852565b9050600060076000848152602001908152602001600020549050818114613034576000600660008673ffffffffffffffffffffffffffffffffffffffff1673ffffffffffffffffffffffffffffffffffffffff168152602001908152602001600020600084815260200190815260200160002054905080600660008773ffffffffffffffffffffffffffffffffffffffff1673ffffffffffffffffffffffffffffffffffffffff168152602001908152602001600020600084815260200190815260200160002081905550816007600083815260200190815260200160002081905550505b6007600084815260200190815260200160002060009055600660008573ffffffffffffffffffffffffffffffffffffffff1673ffffffffffffffffffffffffffffffffffffffff16815260200190815260200160002060008381526020019081526020016000206000905550505050565b600060016008805490506130b99190614852565b905060006009600084815260200190815260200160002054905060006008838154811061310f577f4e487b7100000000000000000000000000000000000000000000000000000000600052603260045260246000fd5b906000526020600020015490508060088381548110613157577f4e487b7100000000000000000000000000000000000000000000000000000000600052603260045260246000fd5b9060005260206000200181905550816009600083815260200190815260200160002081905550600960008581526020019081526020016000206000905560088054806131cc577f4e487b7100000000000000000000000000000000000000000000000000000000600052603160045260246000fd5b6001900381819060005260206000200160009055905550505050565b60006131f38361146e565b905081600660008573ffffffffffffffffffffffffffffffffffffffff1673ffffffffffffffffffffffffffffffffffffffff168152602001908152602001600020600083815260200190815260200160002081905550806007600084815260200190815260200160002081905550505050565b6000807f7fffffffffffffffffffffffffffffff5d576e7357a4501ddfe92f46681b20a08360001c11156132a257600060039150915061336b565b601b8560ff16141580156132ba5750601c8560ff1614155b156132cc57600060049150915061336b565b6000600187878787604051600081526020016040526040516132f194939291906141da565b6020604051602081039080840390855afa158015613313573d6000803e3d6000fd5b505050602060405103519050600073ffffffffffffffffffffffffffffffffffffffff168173ffffffffffffffffffffffffffffffffffffffff1614156133625760006001925092505061336b565b80600092509250505b94509492505050565b60008060007f7fffffffffffffffffffffffffffffffffffffffffffffffffffffffffffffff60001b841690506000601b60ff8660001c901c6133b79190614771565b90506133c587828885613267565b935093505050935093915050565b6000808273ffffffffffffffffffffffffffffffffffffffff163b119050919050565b600073ffffffffffffffffffffffffffffffffffffffff168273ffffffffffffffffffffffffffffffffffffffff161415613466576040517f08c379a000000000000000000000000000000000000000000000000000000000815260040161345d90614501565b60405180910390fd5b61346f81611da7565b156134af576040517f08c379a00000000000000000000000000000000000000000000000000000000081526004016134a690614381565b60405180910390fd5b6134bb6000838361280b565b6001600360008473ffffffffffffffffffffffffffffffffffffffff1673ffffffffffffffffffffffffffffffffffffffff168152602001908152602001600020600082825461350b9190614771565b92505081905550816002600083815260200190815260200160002060006101000a81548173ffffffffffffffffffffffffffffffffffffffff021916908373ffffffffffffffffffffffffffffffffffffffff160217905550808273ffffffffffffffffffffffffffffffffffffffff16600073ffffffffffffffffffffffffffffffffffffffff167fddf252ad1be2c89b69c2b068fc378daa952ba7f163c4a11628f55a4df523b3ef60405160405180910390a46135cc6000838361291f565b5050565b8280546135dc90614953565b90600052602060002090601f0160209004810192826135fe5760008555613645565b82601f1061361757805160ff1916838001178555613645565b82800160010185558215613645579182015b82811115613644578251825591602001919060010190613629565b5b5090506136529190613656565b5090565b5b8082111561366f576000816000905550600101613657565b5090565b6000613686613681846146c1565b61469c565b90508281526020810184848401111561369e57600080fd5b6136a9848285614911565b509392505050565b60006136c46136bf846146f2565b61469c565b9050828152602081018484840111156136dc57600080fd5b6136e7848285614911565b509392505050565b6000813590506136fe8161539d565b92915050565b600081359050613713816153b4565b92915050565b600081359050613728816153cb565b92915050565b60008135905061373d816153e2565b92915050565b600081519050613752816153e2565b92915050565b600082601f83011261376957600080fd5b8135613779848260208601613673565b91505092915050565b600082601f83011261379357600080fd5b81356137a38482602086016136b1565b91505092915050565b6000813590506137bb816153f9565b92915050565b6000602082840312156137d357600080fd5b60006137e1848285016136ef565b91505092915050565b600080604083850312156137fd57600080fd5b600061380b858286016136ef565b925050602061381c858286016136ef565b9150509250929050565b60008060006060848603121561383b57600080fd5b6000613849868287016136ef565b935050602061385a868287016136ef565b925050604061386b868287016137ac565b9150509250925092565b6000806000806080858703121561388b57600080fd5b6000613899878288016136ef565b94505060206138aa878288016136ef565b93505060406138bb878288016137ac565b925050606085013567ffffffffffffffff8111156138d857600080fd5b6138e487828801613758565b91505092959194509250565b6000806040838503121561390357600080fd5b6000613911858286016136ef565b925050602061392285828601613704565b9150509250929050565b6000806040838503121561393f57600080fd5b600061394d858286016136ef565b925050602061395e858286016137ac565b9150509250929050565b60006020828403121561397a57600080fd5b600061398884828501613704565b91505092915050565b600080604083850312156139a457600080fd5b60006139b285828601613719565b925050602083013567ffffffffffffffff8111156139cf57600080fd5b6139db85828601613758565b9150509250929050565b6000602082840312156139f757600080fd5b6000613a058482850161372e565b91505092915050565b600060208284031215613a2057600080fd5b6000613a2e84828501613743565b91505092915050565b600060208284031215613a4957600080fd5b600082013567ffffffffffffffff811115613a6357600080fd5b613a6f84828501613782565b91505092915050565b600060208284031215613a8a57600080fd5b6000613a98848285016137ac565b91505092915050565b600080600060608486031215613ab657600080fd5b6000613ac4868287016137ac565b9350506020613ad586828701613719565b925050604084013567ffffffffffffffff811115613af257600080fd5b613afe86828701613758565b9150509250925092565b613b1181614886565b82525050565b613b2081614898565b82525050565b613b2f816148a4565b82525050565b613b46613b41826148a4565b6149ff565b82525050565b6000613b5782614723565b613b618185614739565b9350613b71818560208601614920565b613b7a81614af6565b840191505092915050565b6000613b908261472e565b613b9a8185614755565b9350613baa818560208601614920565b613bb381614af6565b840191505092915050565b6000613bc98261472e565b613bd38185614766565b9350613be3818560208601614920565b80840191505092915050565b6000613bfc601883614755565b9150613c0782614b07565b602082019050919050565b6000613c1f601f83614755565b9150613c2a82614b30565b602082019050919050565b6000613c42601c83614766565b9150613c4d82614b59565b601c82019050919050565b6000613c65601f83614755565b9150613c7082614b82565b602082019050919050565b6000613c88602b83614755565b9150613c9382614bab565b604082019050919050565b6000613cab602483614755565b9150613cb682614bfa565b604082019050919050565b6000613cce602183614755565b9150613cd982614c49565b604082019050919050565b6000613cf1603283614755565b9150613cfc82614c98565b604082019050919050565b6000613d14601883614755565b9150613d1f82614ce7565b602082019050919050565b6000613d37602683614755565b9150613d4282614d10565b604082019050919050565b6000613d5a602583614755565b9150613d6582614d5f565b604082019050919050565b6000613d7d601c83614755565b9150613d8882614dae565b602082019050919050565b6000613da0602483614755565b9150613dab82614dd7565b604082019050919050565b6000613dc3601983614755565b9150613dce82614e26565b602082019050919050565b6000613de6601483614755565b9150613df182614e4f565b602082019050919050565b6000613e09602283614755565b9150613e1482614e78565b604082019050919050565b6000613e2c602283614755565b9150613e3782614ec7565b604082019050919050565b6000613e4f602583614755565b9150613e5a82614f16565b604082019050919050565b6000613e72602c83614755565b9150613e7d82614f65565b604082019050919050565b6000613e95603883614755565b9150613ea082614fb4565b604082019050919050565b6000613eb8602a83614755565b9150613ec382615003565b604082019050919050565b6000613edb602983614755565b9150613ee682615052565b604082019050919050565b6000613efe602283614755565b9150613f09826150a1565b604082019050919050565b6000613f21602083614755565b9150613f2c826150f0565b602082019050919050565b6000613f44601783614755565b9150613f4f82615119565b602082019050919050565b6000613f67602c83614755565b9150613f7282615142565b604082019050919050565b6000613f8a602083614755565b9150613f9582615191565b602082019050919050565b6000613fad602f83614755565b9150613fb8826151ba565b604082019050919050565b6000613fd0602183614755565b9150613fdb82615209565b604082019050919050565b6000613ff3601b83614755565b9150613ffe82615258565b602082019050919050565b600061401660008361474a565b915061402182615281565b600082019050919050565b6000614039601083614755565b915061404482615284565b602082019050919050565b600061405c603183614755565b9150614067826152ad565b604082019050919050565b600061407f601a83614755565b915061408a826152fc565b602082019050919050565b60006140a2602c83614755565b91506140ad82615325565b604082019050919050565b60006140c5601683614755565b91506140d082615374565b602082019050919050565b6140e4816148fa565b82525050565b6140f381614904565b82525050565b60006141058285613bbe565b91506141118284613bbe565b91508190509392505050565b600061412882613c35565b91506141348284613b35565b60208201915081905092915050565b600061414e82614009565b9150819050919050565b600060208201905061416d6000830184613b08565b92915050565b60006080820190506141886000830187613b08565b6141956020830186613b08565b6141a260408301856140db565b81810360608301526141b48184613b4c565b905095945050505050565b60006020820190506141d46000830184613b17565b92915050565b60006080820190506141ef6000830187613b26565b6141fc60208301866140ea565b6142096040830185613b26565b6142166060830184613b26565b95945050505050565b600060208201905081810360008301526142398184613b85565b905092915050565b6000602082019050818103600083015261425a81613bef565b9050919050565b6000602082019050818103600083015261427a81613c12565b9050919050565b6000602082019050818103600083015261429a81613c58565b9050919050565b600060208201905081810360008301526142ba81613c7b565b9050919050565b600060208201905081810360008301526142da81613c9e565b9050919050565b600060208201905081810360008301526142fa81613cc1565b9050919050565b6000602082019050818103600083015261431a81613ce4565b9050919050565b6000602082019050818103600083015261433a81613d07565b9050919050565b6000602082019050818103600083015261435a81613d2a565b9050919050565b6000602082019050818103600083015261437a81613d4d565b9050919050565b6000602082019050818103600083015261439a81613d70565b9050919050565b600060208201905081810360008301526143ba81613d93565b9050919050565b600060208201905081810360008301526143da81613db6565b9050919050565b600060208201905081810360008301526143fa81613dd9565b9050919050565b6000602082019050818103600083015261441a81613dfc565b9050919050565b6000602082019050818103600083015261443a81613e1f565b9050919050565b6000602082019050818103600083015261445a81613e42565b9050919050565b6000602082019050818103600083015261447a81613e65565b9050919050565b6000602082019050818103600083015261449a81613e88565b9050919050565b600060208201905081810360008301526144ba81613eab565b9050919050565b600060208201905081810360008301526144da81613ece565b9050919050565b600060208201905081810360008301526144fa81613ef1565b9050919050565b6000602082019050818103600083015261451a81613f14565b9050919050565b6000602082019050818103600083015261453a81613f37565b9050919050565b6000602082019050818103600083015261455a81613f5a565b9050919050565b6000602082019050818103600083015261457a81613f7d565b9050919050565b6000602082019050818103600083015261459a81613fa0565b9050919050565b600060208201905081810360008301526145ba81613fc3565b9050919050565b600060208201905081810360008301526145da81613fe6565b9050919050565b600060208201905081810360008301526145fa8161402c565b9050919050565b6000602082019050818103600083015261461a8161404f565b9050919050565b6000602082019050818103600083015261463a81614072565b9050919050565b6000602082019050818103600083015261465a81614095565b9050919050565b6000602082019050818103600083015261467a816140b8565b9050919050565b600060208201905061469660008301846140db565b92915050565b60006146a66146b7565b90506146b28282614985565b919050565b6000604051905090565b600067ffffffffffffffff8211156146dc576146db614ac7565b5b6146e582614af6565b9050602081019050919050565b600067ffffffffffffffff82111561470d5761470c614ac7565b5b61471682614af6565b9050602081019050919050565b600081519050919050565b600081519050919050565b600082825260208201905092915050565b600081905092915050565b600082825260208201905092915050565b600081905092915050565b600061477c826148fa565b9150614787836148fa565b9250827fffffffffffffffffffffffffffffffffffffffffffffffffffffffffffffffff038211156147bc576147bb614a3a565b5b828201905092915050565b60006147d2826148fa565b91506147dd836148fa565b9250826147ed576147ec614a69565b5b828204905092915050565b6000614803826148fa565b915061480e836148fa565b9250817fffffffffffffffffffffffffffffffffffffffffffffffffffffffffffffffff048311821515161561484757614846614a3a565b5b828202905092915050565b600061485d826148fa565b9150614868836148fa565b92508282101561487b5761487a614a3a565b5b828203905092915050565b6000614891826148da565b9050919050565b60008115159050919050565b6000819050919050565b60007fffffffff0000000000000000000000000000000000000000000000000000000082169050919050565b600073ffffffffffffffffffffffffffffffffffffffff82169050919050565b6000819050919050565b600060ff82169050919050565b82818337600083830152505050565b60005b8381101561493e578082015181840152602081019050614923565b8381111561494d576000848401525b50505050565b6000600282049050600182168061496b57607f821691505b6020821081141561497f5761497e614a98565b5b50919050565b61498e82614af6565b810181811067ffffffffffffffff821117156149ad576149ac614ac7565b5b80604052505050565b60006149c1826148fa565b91507fffffffffffffffffffffffffffffffffffffffffffffffffffffffffffffffff8214156149f4576149f3614a3a565b5b600182019050919050565b6000819050919050565b6000614a14826148fa565b9150614a1f836148fa565b925082614a2f57614a2e614a69565b5b828206905092915050565b7f4e487b7100000000000000000000000000000000000000000000000000000000600052601160045260246000fd5b7f4e487b7100000000000000000000000000000000000000000000000000000000600052601260045260246000fd5b7f4e487b7100000000000000000000000000000000000000000000000000000000600052602260045260246000fd5b7f4e487b7100000000000000000000000000000000000000000000000000000000600052604160045260246000fd5b6000601f19601f8301169050919050565b7f45434453413a20696e76616c6964207369676e61747572650000000000000000600082015250565b7f45434453413a20696e76616c6964207369676e6174757265206c656e67746800600082015250565b7f19457468657265756d205369676e6564204d6573736167653a0a333200000000600082015250565b7f596f75206861766520746f206d696e74206174206c656173742031204e465400600082015250565b7f455243373231456e756d657261626c653a206f776e657220696e646578206f7560008201527f74206f6620626f756e6473000000000000000000000000000000000000000000602082015250565b7f43616e6e6f74206d696e7420737065636966696564206e756d626572206f662060008201527f4e46547300000000000000000000000000000000000000000000000000000000602082015250565b7f4e6f7420656e6f75676820657468657220746f207075726368617365204e465460008201527f7300000000000000000000000000000000000000000000000000000000000000602082015250565b7f4552433732313a207472616e7366657220746f206e6f6e20455243373231526560008201527f63656976657220696d706c656d656e7465720000000000000000000000000000602082015250565b7f4e6f7420656e6f756768204e46547320746f206d696e742e0000000000000000600082015250565b7f4f776e61626c653a206e6577206f776e657220697320746865207a65726f206160008201527f6464726573730000000000000000000000000000000000000000000000000000602082015250565b7f4552433732313a207472616e736665722066726f6d20696e636f72726563742060008201527f6f776e6572000000000000000000000000000000000000000000000000000000602082015250565b7f4552433732313a20746f6b656e20616c7265616479206d696e74656400000000600082015250565b7f4552433732313a207472616e7366657220746f20746865207a65726f2061646460008201527f7265737300000000000000000000000000000000000000000000000000000000602082015250565b7f4552433732313a20617070726f766520746f2063616c6c657200000000000000600082015250565b7f4e6f20657468657220746f207769746864726177000000000000000000000000600082015250565b7f45434453413a20696e76616c6964207369676e6174757265202773272076616c60008201527f7565000000000000000000000000000000000000000000000000000000000000602082015250565b7f4e6f7420656e6f75676820657468657220746f207075726368617365204e465460008201527f732e000000000000000000000000000000000000000000000000000000000000602082015250565b7f43616e6e6f74206d696e7420737065636966696564206e756d626572206f662060008201527f4e4654732e000000000000000000000000000000000000000000000000000000602082015250565b7f4552433732313a206f70657261746f7220717565727920666f72206e6f6e657860008201527f697374656e7420746f6b656e0000000000000000000000000000000000000000602082015250565b7f4552433732313a20617070726f76652063616c6c6572206973206e6f74206f7760008201527f6e6572206e6f7220617070726f76656420666f7220616c6c0000000000000000602082015250565b7f4552433732313a2062616c616e636520717565727920666f7220746865207a6560008201527f726f206164647265737300000000000000000000000000000000000000000000602082015250565b7f4552433732313a206f776e657220717565727920666f72206e6f6e657869737460008201527f656e7420746f6b656e0000000000000000000000000000000000000000000000602082015250565b7f45434453413a20696e76616c6964207369676e6174757265202776272076616c60008201527f7565000000000000000000000000000000000000000000000000000000000000602082015250565b7f4552433732313a206d696e7420746f20746865207a65726f2061646472657373600082015250565b7f4e6f7420656e6f756768204e46547320746f206d696e74000000000000000000600082015250565b7f4552433732313a20617070726f76656420717565727920666f72206e6f6e657860008201527f697374656e7420746f6b656e0000000000000000000000000000000000000000602082015250565b7f4f776e61626c653a2063616c6c6572206973206e6f7420746865206f776e6572600082015250565b7f4552433732314d657461646174613a2055524920717565727920666f72206e6f60008201527f6e6578697374656e7420746f6b656e0000000000000000000000000000000000602082015250565b7f4552433732313a20617070726f76616c20746f2063757272656e74206f776e6560008201527f7200000000000000000000000000000000000000000000000000000000000000602082015250565b7f41646472657373206973206e6f742077686974656c69737465642e0000000000600082015250565b50565b7f5472616e73666572206661696c65642e00000000000000000000000000000000600082015250565b7f4552433732313a207472616e736665722063616c6c6572206973206e6f74206f60008201527f776e6572206e6f7220617070726f766564000000000000000000000000000000602082015250565b7f596f752063616e6e6f74206d696e74207269676874206e6f772e000000000000600082015250565b7f455243373231456e756d657261626c653a20676c6f62616c20696e646578206f60008201527f7574206f6620626f756e64730000000000000000000000000000000000000000602082015250565b7f50726573616c65206973206e6f74206163746976652e00000000000000000000600082015250565b6153a681614886565b81146153b157600080fd5b50565b6153bd81614898565b81146153c857600080fd5b50565b6153d4816148a4565b81146153df57600080fd5b50565b6153eb816148ae565b81146153f657600080fd5b50565b615402816148fa565b811461540d57600080fd5b5056fea2646970667358221220f6e185fa2c007d34dfd77347d604b7ff316faf4c8653ea002ec5c0fe91fac7cc64736f6c63430008040033",
  "linkReferences": {},
  "deployedLinkReferences": {}
}